{
  "contractName": "HealthCare",
  "abi": [
    {
      "inputs": [],
      "stateMutability": "nonpayable",
      "type": "constructor"
    },
    {
      "anonymous": false,
      "inputs": [
        {
          "indexed": false,
          "internalType": "uint256",
          "name": "id",
          "type": "uint256"
        },
        {
          "indexed": false,
          "internalType": "address",
          "name": "doctor",
          "type": "address"
        }
      ],
      "name": "DoctorRecordPublished",
      "type": "event"
    },
    {
      "anonymous": false,
      "inputs": [
        {
          "indexed": false,
          "internalType": "address",
          "name": "doctor",
          "type": "address"
        }
      ],
      "name": "DoctorRegistered",
      "type": "event"
    },
    {
      "anonymous": false,
      "inputs": [
        {
          "indexed": false,
          "internalType": "uint256",
          "name": "id",
          "type": "uint256"
        },
        {
          "indexed": false,
          "internalType": "address",
          "name": "patient",
          "type": "address"
        }
      ],
      "name": "PatientRecordPublished",
      "type": "event"
    },
    {
      "anonymous": false,
      "inputs": [
        {
          "indexed": false,
          "internalType": "address",
          "name": "patient",
          "type": "address"
        }
      ],
      "name": "PatientRegistered",
      "type": "event"
    },
    {
      "inputs": [],
      "name": "canWrite",
      "outputs": [
        {
          "internalType": "bool",
          "name": "",
          "type": "bool"
        }
      ],
      "stateMutability": "view",
      "type": "function",
      "constant": true
    },
    {
      "inputs": [],
      "name": "canGiveAccess",
      "outputs": [
        {
          "internalType": "bool",
          "name": "",
          "type": "bool"
        }
      ],
      "stateMutability": "view",
      "type": "function",
      "constant": true
    },
    {
      "inputs": [
        {
          "internalType": "address",
          "name": "_patient",
          "type": "address"
        },
        {
          "internalType": "address",
          "name": "_doctor",
          "type": "address"
        },
        {
          "internalType": "string",
          "name": "_title",
          "type": "string"
        },
        {
          "internalType": "string",
          "name": "_description",
          "type": "string"
        },
        {
          "internalType": "address",
          "name": "_medicalCenter",
          "type": "address"
        },
        {
          "internalType": "string[]",
          "name": "_tags",
          "type": "string[]"
        },
        {
          "internalType": "string",
          "name": "_attachment",
          "type": "string"
        }
      ],
      "name": "addPatientRecord",
      "outputs": [],
      "stateMutability": "nonpayable",
      "type": "function"
    },
    {
      "inputs": [
        {
          "internalType": "address",
          "name": "_patient",
          "type": "address"
        },
        {
          "internalType": "uint256",
          "name": "_recordId",
          "type": "uint256"
        }
      ],
      "name": "getPatientRecord",
      "outputs": [
        {
          "components": [
            {
              "internalType": "uint256",
              "name": "id",
              "type": "uint256"
            },
            {
              "internalType": "string",
              "name": "title",
              "type": "string"
            },
            {
              "internalType": "string",
              "name": "description",
              "type": "string"
            },
            {
              "internalType": "address",
              "name": "doctor",
              "type": "address"
            },
            {
              "internalType": "address",
              "name": "patient",
              "type": "address"
            },
            {
              "internalType": "uint256",
              "name": "date",
              "type": "uint256"
            },
            {
              "internalType": "address",
              "name": "medicalCenter",
              "type": "address"
            },
            {
              "internalType": "string[]",
              "name": "tags",
              "type": "string[]"
            },
            {
              "internalType": "string",
              "name": "attachment",
              "type": "string"
            }
          ],
          "internalType": "struct HealthCare.PatientRecord",
          "name": "",
          "type": "tuple"
        }
      ],
      "stateMutability": "view",
      "type": "function",
      "constant": true
    },
    {
      "inputs": [
        {
          "internalType": "address",
          "name": "_patient",
          "type": "address"
        }
      ],
      "name": "getPatientRecords",
      "outputs": [
        {
          "components": [
            {
              "internalType": "uint256",
              "name": "id",
              "type": "uint256"
            },
            {
              "internalType": "string",
              "name": "title",
              "type": "string"
            },
            {
              "internalType": "string",
              "name": "description",
              "type": "string"
            },
            {
              "internalType": "address",
              "name": "doctor",
              "type": "address"
            },
            {
              "internalType": "address",
              "name": "patient",
              "type": "address"
            },
            {
              "internalType": "uint256",
              "name": "date",
              "type": "uint256"
            },
            {
              "internalType": "address",
              "name": "medicalCenter",
              "type": "address"
            },
            {
              "internalType": "string[]",
              "name": "tags",
              "type": "string[]"
            },
            {
              "internalType": "string",
              "name": "attachment",
              "type": "string"
            }
          ],
          "internalType": "struct HealthCare.PatientRecord[]",
          "name": "",
          "type": "tuple[]"
        }
      ],
      "stateMutability": "view",
      "type": "function",
      "constant": true
    },
    {
      "inputs": [],
      "name": "getPatientsInfo",
      "outputs": [
        {
          "components": [
            {
              "internalType": "string",
              "name": "name",
              "type": "string"
            },
            {
              "internalType": "string",
              "name": "nationalId",
              "type": "string"
            },
            {
              "internalType": "string",
              "name": "gender",
              "type": "string"
            },
            {
              "internalType": "address",
              "name": "id",
              "type": "address"
            },
            {
              "internalType": "bool",
              "name": "registered",
              "type": "bool"
            }
          ],
          "internalType": "struct HealthCare.PatientInfo[]",
          "name": "",
          "type": "tuple[]"
        }
      ],
      "stateMutability": "view",
      "type": "function",
      "constant": true
    },
    {
      "inputs": [],
      "name": "getDoctorsInfo",
      "outputs": [
        {
          "components": [
            {
              "internalType": "string",
              "name": "name",
              "type": "string"
            },
            {
              "internalType": "string",
              "name": "nationalId",
              "type": "string"
            },
            {
              "internalType": "string",
              "name": "gender",
              "type": "string"
            },
            {
              "internalType": "string",
              "name": "specialty",
              "type": "string"
            },
            {
              "internalType": "uint256",
              "name": "yearsOfExperience",
              "type": "uint256"
            },
            {
              "internalType": "address",
              "name": "id",
              "type": "address"
            },
            {
              "internalType": "bool",
              "name": "registered",
              "type": "bool"
            }
          ],
          "internalType": "struct HealthCare.DoctorInfo[]",
          "name": "",
          "type": "tuple[]"
        }
      ],
      "stateMutability": "view",
      "type": "function",
      "constant": true
    },
    {
      "inputs": [],
      "name": "isRegisteredAsPatient",
      "outputs": [
        {
          "internalType": "bool",
          "name": "",
          "type": "bool"
        }
      ],
      "stateMutability": "view",
      "type": "function",
      "constant": true
    },
    {
      "inputs": [
        {
          "internalType": "string",
          "name": "_name",
          "type": "string"
        },
        {
          "internalType": "string",
          "name": "_nationalId",
          "type": "string"
        },
        {
          "internalType": "string",
          "name": "_gender",
          "type": "string"
        }
      ],
      "name": "registerAsPatient",
      "outputs": [],
      "stateMutability": "nonpayable",
      "type": "function"
    },
    {
      "inputs": [],
      "name": "isRegisteredAsDoctor",
      "outputs": [
        {
          "internalType": "bool",
          "name": "",
          "type": "bool"
        }
      ],
      "stateMutability": "view",
      "type": "function",
      "constant": true
    },
    {
      "inputs": [
        {
          "internalType": "address",
          "name": "_doctor",
          "type": "address"
        },
        {
          "internalType": "string",
          "name": "_name",
          "type": "string"
        },
        {
          "internalType": "string",
          "name": "_nationalId",
          "type": "string"
        },
        {
          "internalType": "string",
          "name": "_gender",
          "type": "string"
        },
        {
          "internalType": "string",
          "name": "_specialty",
          "type": "string"
        },
        {
          "internalType": "uint256",
          "name": "_yearsOfExperience",
          "type": "uint256"
        }
      ],
      "name": "registerAsDoctor",
      "outputs": [],
      "stateMutability": "nonpayable",
      "type": "function"
    },
    {
      "inputs": [
        {
          "internalType": "address",
          "name": "_doctor",
          "type": "address"
        }
      ],
      "name": "getDoctorRecord",
      "outputs": [
        {
          "components": [
            {
              "internalType": "uint256",
              "name": "id",
              "type": "uint256"
            },
            {
              "internalType": "address",
              "name": "doctor",
              "type": "address"
            },
            {
              "internalType": "string",
              "name": "name",
              "type": "string"
            },
            {
              "internalType": "string",
              "name": "nationalId",
              "type": "string"
            },
            {
              "internalType": "string",
              "name": "gender",
              "type": "string"
            },
            {
              "internalType": "string",
              "name": "specialty",
              "type": "string"
            },
            {
              "internalType": "uint256",
              "name": "yearsOfExperience",
              "type": "uint256"
            },
            {
              "internalType": "uint256",
              "name": "date",
              "type": "uint256"
            }
          ],
          "internalType": "struct HealthCare.DoctorRecord",
          "name": "",
          "type": "tuple"
        }
      ],
      "stateMutability": "view",
      "type": "function",
      "constant": true
    },
    {
      "inputs": [
        {
          "internalType": "address",
          "name": "_doctor",
          "type": "address"
        }
      ],
      "name": "getDoctorRecords",
      "outputs": [
        {
          "components": [
            {
              "internalType": "uint256",
              "name": "id",
              "type": "uint256"
            },
            {
              "internalType": "address",
              "name": "doctor",
              "type": "address"
            },
            {
              "internalType": "string",
              "name": "name",
              "type": "string"
            },
            {
              "internalType": "string",
              "name": "nationalId",
              "type": "string"
            },
            {
              "internalType": "string",
              "name": "gender",
              "type": "string"
            },
            {
              "internalType": "string",
              "name": "specialty",
              "type": "string"
            },
            {
              "internalType": "uint256",
              "name": "yearsOfExperience",
              "type": "uint256"
            },
            {
              "internalType": "uint256",
              "name": "date",
              "type": "uint256"
            }
          ],
          "internalType": "struct HealthCare.DoctorRecord[]",
          "name": "",
          "type": "tuple[]"
        }
      ],
      "stateMutability": "view",
      "type": "function",
      "constant": true
    },
    {
      "inputs": [
        {
          "internalType": "address payable",
          "name": "_user",
          "type": "address"
        }
      ],
      "name": "grantAdminAccess",
      "outputs": [],
      "stateMutability": "payable",
      "type": "function",
      "payable": true
    },
    {
      "inputs": [
        {
          "internalType": "address payable",
          "name": "_user",
          "type": "address"
        }
      ],
      "name": "grantWriteAccess",
      "outputs": [],
      "stateMutability": "payable",
      "type": "function",
      "payable": true
    }
  ],
  "bytecode": "0x608060405234801561001057600080fd5b506040518060a00160405280600115158152602001600115158152602001600115158152602001600015158152602001600015158152506000803373ffffffffffffffffffffffffffffffffffffffff1673ffffffffffffffffffffffffffffffffffffffff16815260200190815260200160002060008201518160000160006101000a81548160ff02191690831515021790555060208201518160000160016101000a81548160ff02191690831515021790555060408201518160000160026101000a81548160ff02191690831515021790555060608201518160000160036101000a81548160ff02191690831515021790555060808201518160000160046101000a81548160ff021916908315150217905550905050614859806101376000396000f3fe6080604052600436106100e85760003560e01c806377bd18501161008a578063c08fb2ef11610059578063c08fb2ef146102e9578063c4c75ae714610314578063e5a5e6fe1461033d578063f7dbcb5314610359576100e8565b806377bd18501461022d5780637da45db614610258578063ad4e5bda14610281578063b69bca5a146102ac576100e8565b8063284bba8f116100c6578063284bba8f1461016f5780634050cee51461019a57806353f3b40a146101c55780636d93fa19146101f0576100e8565b80631822faa3146100ed57806318bd48471461011657806322b3127a14610153575b600080fd5b3480156100f957600080fd5b50610114600480360381019061010f9190613731565b610396565b005b34801561012257600080fd5b5061013d600480360381019061013891906134bc565b6105bd565b60405161014a9190614114565b60405180910390f35b61016d600480360381019061016891906134e5565b610c8f565b005b34801561017b57600080fd5b50610184610e70565b6040516101919190614136565b60405180910390f35b3480156101a657600080fd5b506101af610ec7565b6040516101bc9190614136565b60405180910390f35b3480156101d157600080fd5b506101da610f1d565b6040516101e79190614136565b60405180910390f35b3480156101fc57600080fd5b50610217600480360381019061021291906136f5565b610fc9565b6040516102249190614273565b60405180910390f35b34801561023957600080fd5b506102426115fb565b60405161024f91906140f2565b60405180910390f35b34801561026457600080fd5b5061027f600480360381019061027a919061350e565b6119cb565b005b34801561028d57600080fd5b50610296611d9f565b6040516102a391906140ae565b60405180910390f35b3480156102b857600080fd5b506102d360048036038101906102ce91906134bc565b61220b565b6040516102e09190614251565b60405180910390f35b3480156102f557600080fd5b506102fe612521565b60405161030b9190614136565b60405180910390f35b34801561032057600080fd5b5061033b6004803603810190610336919061360c565b612578565b005b610357600480360381019061035291906134e5565b612abc565b005b34801561036557600080fd5b50610380600480360381019061037b91906134bc565b612c41565b60405161038d91906140d0565b60405180910390f35b61039e612521565b156103de576040517f08c379a00000000000000000000000000000000000000000000000000000000081526004016103d590614231565b60405180910390fd5b6040518060a001604052808481526020018381526020018281526020013373ffffffffffffffffffffffffffffffffffffffff16815260200160011515815250600760003373ffffffffffffffffffffffffffffffffffffffff1673ffffffffffffffffffffffffffffffffffffffff1681526020019081526020016000206000820151816000019080519060200190610479929190613079565b506020820151816001019080519060200190610496929190613079565b5060408201518160020190805190602001906104b3929190613079565b5060608201518160030160006101000a81548173ffffffffffffffffffffffffffffffffffffffff021916908373ffffffffffffffffffffffffffffffffffffffff16021790555060808201518160030160146101000a81548160ff0219169083151502179055509050506005339080600181540180825580915050600190039060005260206000200160009091909190916101000a81548173ffffffffffffffffffffffffffffffffffffffff021916908373ffffffffffffffffffffffffffffffffffffffff1602179055507fc9fa2003fca4ce0dfc8cb0deae32266b715536df6685365b05b5be96ede8e49c336040516105b09190614093565b60405180910390a1505050565b60608160008060003373ffffffffffffffffffffffffffffffffffffffff1673ffffffffffffffffffffffffffffffffffffffff16815260200190815260200160002060000160009054906101000a900460ff16905060008060003373ffffffffffffffffffffffffffffffffffffffff1673ffffffffffffffffffffffffffffffffffffffff16815260200190815260200160002060000160019054906101000a900460ff16905060008060003373ffffffffffffffffffffffffffffffffffffffff1673ffffffffffffffffffffffffffffffffffffffff16815260200190815260200160002060000160029054906101000a900460ff16905060008473ffffffffffffffffffffffffffffffffffffffff163373ffffffffffffffffffffffffffffffffffffffff1614905060006106f6612521565b905084806107015750835b806107095750825b8061071a57508180156107195750805b5b610759576040517f08c379a0000000000000000000000000000000000000000000000000000000008152600401610750906141f1565b60405180910390fd5b6000600160008a73ffffffffffffffffffffffffffffffffffffffff1673ffffffffffffffffffffffffffffffffffffffff16815260200190815260200160002054905060008167ffffffffffffffff8111156107df577f4e487b7100000000000000000000000000000000000000000000000000000000600052604160045260246000fd5b60405190808252806020026020018201604052801561081857816020015b6108056130ff565b8152602001906001900390816107fd5790505b50905060005b82811015610c7e57600360008c73ffffffffffffffffffffffffffffffffffffffff1673ffffffffffffffffffffffffffffffffffffffff1681526020019081526020016000206000828152602001908152602001600020604051806101200160405290816000820154815260200160018201805461089c90614526565b80601f01602080910402602001604051908101604052809291908181526020018280546108c890614526565b80156109155780601f106108ea57610100808354040283529160200191610915565b820191906000526020600020905b8154815290600101906020018083116108f857829003601f168201915b5050505050815260200160028201805461092e90614526565b80601f016020809104026020016040519081016040528092919081815260200182805461095a90614526565b80156109a75780601f1061097c576101008083540402835291602001916109a7565b820191906000526020600020905b81548152906001019060200180831161098a57829003601f168201915b505050505081526020016003820160009054906101000a900473ffffffffffffffffffffffffffffffffffffffff1673ffffffffffffffffffffffffffffffffffffffff1673ffffffffffffffffffffffffffffffffffffffff1681526020016004820160009054906101000a900473ffffffffffffffffffffffffffffffffffffffff1673ffffffffffffffffffffffffffffffffffffffff1673ffffffffffffffffffffffffffffffffffffffff168152602001600582015481526020016006820160009054906101000a900473ffffffffffffffffffffffffffffffffffffffff1673ffffffffffffffffffffffffffffffffffffffff1673ffffffffffffffffffffffffffffffffffffffff16815260200160078201805480602002602001604051908101604052809291908181526020016000905b82821015610b8d578382906000526020600020018054610b0090614526565b80601f0160208091040260200160405190810160405280929190818152602001828054610b2c90614526565b8015610b795780601f10610b4e57610100808354040283529160200191610b79565b820191906000526020600020905b815481529060010190602001808311610b5c57829003601f168201915b505050505081526020019060010190610ae1565b505050508152602001600882018054610ba590614526565b80601f0160208091040260200160405190810160405280929190818152602001828054610bd190614526565b8015610c1e5780601f10610bf357610100808354040283529160200191610c1e565b820191906000526020600020905b815481529060010190602001808311610c0157829003601f168201915b505050505081525050828281518110610c60577f4e487b7100000000000000000000000000000000000000000000000000000000600052603260045260246000fd5b60200260200101819052508080610c7690614589565b91505061081e565b508098505050505050505050919050565b6000803373ffffffffffffffffffffffffffffffffffffffff1673ffffffffffffffffffffffffffffffffffffffff16815260200190815260200160002060000160009054906101000a900460ff16610d1d576040517f08c379a0000000000000000000000000000000000000000000000000000000008152600401610d14906141d1565b60405180910390fd5b67016345785d8a000080341015610d69576040517f08c379a0000000000000000000000000000000000000000000000000000000008152600401610d60906141b1565b60405180910390fd5b60016000808473ffffffffffffffffffffffffffffffffffffffff1673ffffffffffffffffffffffffffffffffffffffff16815260200190815260200160002060000160006101000a81548160ff02191690831515021790555060016000808473ffffffffffffffffffffffffffffffffffffffff1673ffffffffffffffffffffffffffffffffffffffff16815260200190815260200160002060000160016101000a81548160ff0219169083151502179055508173ffffffffffffffffffffffffffffffffffffffff166108fc67016345785d8a00009081150290604051600060405180830381858888f19350505050158015610e6b573d6000803e3d6000fd5b505050565b6000600860003373ffffffffffffffffffffffffffffffffffffffff1673ffffffffffffffffffffffffffffffffffffffff16815260200190815260200160002060050160149054906101000a900460ff16905090565b60008060003373ffffffffffffffffffffffffffffffffffffffff1673ffffffffffffffffffffffffffffffffffffffff16815260200190815260200160002060000160009054906101000a900460ff16905090565b60008060003373ffffffffffffffffffffffffffffffffffffffff1673ffffffffffffffffffffffffffffffffffffffff16815260200190815260200160002060000160029054906101000a900460ff1680610fc457506000803373ffffffffffffffffffffffffffffffffffffffff1673ffffffffffffffffffffffffffffffffffffffff16815260200190815260200160002060000160019054906101000a900460ff165b905090565b610fd16130ff565b8260008060003373ffffffffffffffffffffffffffffffffffffffff1673ffffffffffffffffffffffffffffffffffffffff16815260200190815260200160002060000160009054906101000a900460ff16905060008060003373ffffffffffffffffffffffffffffffffffffffff1673ffffffffffffffffffffffffffffffffffffffff16815260200190815260200160002060000160019054906101000a900460ff16905060008060003373ffffffffffffffffffffffffffffffffffffffff1673ffffffffffffffffffffffffffffffffffffffff16815260200190815260200160002060000160029054906101000a900460ff16905060008473ffffffffffffffffffffffffffffffffffffffff163373ffffffffffffffffffffffffffffffffffffffff161490506000611108612521565b905084806111135750835b8061111b5750825b8061112c575081801561112b5750805b5b61116b576040517f08c379a0000000000000000000000000000000000000000000000000000000008152600401611162906141f1565b60405180910390fd5b87600160008b73ffffffffffffffffffffffffffffffffffffffff1673ffffffffffffffffffffffffffffffffffffffff16815260200190815260200160002054116111ec576040517f08c379a00000000000000000000000000000000000000000000000000000000081526004016111e390614191565b60405180910390fd5b600360008a73ffffffffffffffffffffffffffffffffffffffff1673ffffffffffffffffffffffffffffffffffffffff1681526020019081526020016000206000898152602001908152602001600020604051806101200160405290816000820154815260200160018201805461126290614526565b80601f016020809104026020016040519081016040528092919081815260200182805461128e90614526565b80156112db5780601f106112b0576101008083540402835291602001916112db565b820191906000526020600020905b8154815290600101906020018083116112be57829003601f168201915b505050505081526020016002820180546112f490614526565b80601f016020809104026020016040519081016040528092919081815260200182805461132090614526565b801561136d5780601f106113425761010080835404028352916020019161136d565b820191906000526020600020905b81548152906001019060200180831161135057829003601f168201915b505050505081526020016003820160009054906101000a900473ffffffffffffffffffffffffffffffffffffffff1673ffffffffffffffffffffffffffffffffffffffff1673ffffffffffffffffffffffffffffffffffffffff1681526020016004820160009054906101000a900473ffffffffffffffffffffffffffffffffffffffff1673ffffffffffffffffffffffffffffffffffffffff1673ffffffffffffffffffffffffffffffffffffffff168152602001600582015481526020016006820160009054906101000a900473ffffffffffffffffffffffffffffffffffffffff1673ffffffffffffffffffffffffffffffffffffffff1673ffffffffffffffffffffffffffffffffffffffff16815260200160078201805480602002602001604051908101604052809291908181526020016000905b828210156115535783829060005260206000200180546114c690614526565b80601f01602080910402602001604051908101604052809291908181526020018280546114f290614526565b801561153f5780601f106115145761010080835404028352916020019161153f565b820191906000526020600020905b81548152906001019060200180831161152257829003601f168201915b5050505050815260200190600101906114a7565b50505050815260200160088201805461156b90614526565b80601f016020809104026020016040519081016040528092919081815260200182805461159790614526565b80156115e45780601f106115b9576101008083540402835291602001916115e4565b820191906000526020600020905b8154815290600101906020018083116115c757829003601f168201915b505050505081525050965050505050505092915050565b60606000600580549050905060008167ffffffffffffffff811115611649577f4e487b7100000000000000000000000000000000000000000000000000000000600052604160045260246000fd5b60405190808252806020026020018201604052801561168257816020015b61166f61318d565b8152602001906001900390816116675790505b50905060005b828110156119c2576000600582815481106116cc577f4e487b7100000000000000000000000000000000000000000000000000000000600052603260045260246000fd5b9060005260206000200160009054906101000a900473ffffffffffffffffffffffffffffffffffffffff169050600760008273ffffffffffffffffffffffffffffffffffffffff1673ffffffffffffffffffffffffffffffffffffffff1681526020019081526020016000206040518060a001604052908160008201805461175390614526565b80601f016020809104026020016040519081016040528092919081815260200182805461177f90614526565b80156117cc5780601f106117a1576101008083540402835291602001916117cc565b820191906000526020600020905b8154815290600101906020018083116117af57829003601f168201915b505050505081526020016001820180546117e590614526565b80601f016020809104026020016040519081016040528092919081815260200182805461181190614526565b801561185e5780601f106118335761010080835404028352916020019161185e565b820191906000526020600020905b81548152906001019060200180831161184157829003601f168201915b5050505050815260200160028201805461187790614526565b80601f01602080910402602001604051908101604052809291908181526020018280546118a390614526565b80156118f05780601f106118c5576101008083540402835291602001916118f0565b820191906000526020600020905b8154815290600101906020018083116118d357829003601f168201915b505050505081526020016003820160009054906101000a900473ffffffffffffffffffffffffffffffffffffffff1673ffffffffffffffffffffffffffffffffffffffff1673ffffffffffffffffffffffffffffffffffffffff1681526020016003820160149054906101000a900460ff1615151515815250508383815181106119a3577f4e487b7100000000000000000000000000000000000000000000000000000000600052603260045260246000fd5b60200260200101819052505080806119ba90614589565b915050611688565b50809250505090565b6000803373ffffffffffffffffffffffffffffffffffffffff1673ffffffffffffffffffffffffffffffffffffffff16815260200190815260200160002060000160019054906101000a900460ff16611a59576040517f08c379a0000000000000000000000000000000000000000000000000000000008152600401611a5090614151565b60405180910390fd5b604051806101200160405280600160008a73ffffffffffffffffffffffffffffffffffffffff1673ffffffffffffffffffffffffffffffffffffffff1681526020019081526020016000205481526020018681526020018581526020018773ffffffffffffffffffffffffffffffffffffffff1681526020018873ffffffffffffffffffffffffffffffffffffffff1681526020014281526020018473ffffffffffffffffffffffffffffffffffffffff16815260200183815260200182815250600360008973ffffffffffffffffffffffffffffffffffffffff1673ffffffffffffffffffffffffffffffffffffffff1681526020019081526020016000206000600160008b73ffffffffffffffffffffffffffffffffffffffff1673ffffffffffffffffffffffffffffffffffffffff168152602001908152602001600020548152602001908152602001600020600082015181600001556020820151816001019080519060200190611bcf929190613079565b506040820151816002019080519060200190611bec929190613079565b5060608201518160030160006101000a81548173ffffffffffffffffffffffffffffffffffffffff021916908373ffffffffffffffffffffffffffffffffffffffff16021790555060808201518160040160006101000a81548173ffffffffffffffffffffffffffffffffffffffff021916908373ffffffffffffffffffffffffffffffffffffffff16021790555060a0820151816005015560c08201518160060160006101000a81548173ffffffffffffffffffffffffffffffffffffffff021916908373ffffffffffffffffffffffffffffffffffffffff16021790555060e0820151816007019080519060200190611ce89291906131d4565b50610100820151816008019080519060200190611d06929190613079565b509050507f48a00f0dc2363c1ebf6b5bbf69a05f9a93019007d3a9071307bc6932463eb216600160008973ffffffffffffffffffffffffffffffffffffffff1673ffffffffffffffffffffffffffffffffffffffff1681526020019081526020016000206000815480929190611d7b90614589565b9190505588604051611d8e929190614295565b60405180910390a150505050505050565b60606000600680549050905060008167ffffffffffffffff811115611ded577f4e487b7100000000000000000000000000000000000000000000000000000000600052604160045260246000fd5b604051908082528060200260200182016040528015611e2657816020015b611e13613234565b815260200190600190039081611e0b5790505b50905060005b8281101561220257600060068281548110611e70577f4e487b7100000000000000000000000000000000000000000000000000000000600052603260045260246000fd5b9060005260206000200160009054906101000a900473ffffffffffffffffffffffffffffffffffffffff169050600860008273ffffffffffffffffffffffffffffffffffffffff1673ffffffffffffffffffffffffffffffffffffffff1681526020019081526020016000206040518060e0016040529081600082018054611ef790614526565b80601f0160208091040260200160405190810160405280929190818152602001828054611f2390614526565b8015611f705780601f10611f4557610100808354040283529160200191611f70565b820191906000526020600020905b815481529060010190602001808311611f5357829003601f168201915b50505050508152602001600182018054611f8990614526565b80601f0160208091040260200160405190810160405280929190818152602001828054611fb590614526565b80156120025780601f10611fd757610100808354040283529160200191612002565b820191906000526020600020905b815481529060010190602001808311611fe557829003601f168201915b5050505050815260200160028201805461201b90614526565b80601f016020809104026020016040519081016040528092919081815260200182805461204790614526565b80156120945780601f1061206957610100808354040283529160200191612094565b820191906000526020600020905b81548152906001019060200180831161207757829003601f168201915b505050505081526020016003820180546120ad90614526565b80601f01602080910402602001604051908101604052809291908181526020018280546120d990614526565b80156121265780601f106120fb57610100808354040283529160200191612126565b820191906000526020600020905b81548152906001019060200180831161210957829003601f168201915b50505050508152602001600482015481526020016005820160009054906101000a900473ffffffffffffffffffffffffffffffffffffffff1673ffffffffffffffffffffffffffffffffffffffff1673ffffffffffffffffffffffffffffffffffffffff1681526020016005820160149054906101000a900460ff1615151515815250508383815181106121e3577f4e487b7100000000000000000000000000000000000000000000000000000000600052603260045260246000fd5b60200260200101819052505080806121fa90614589565b915050611e2c565b50809250505090565b612213613289565b600460008373ffffffffffffffffffffffffffffffffffffffff1673ffffffffffffffffffffffffffffffffffffffff16815260200190815260200160002060405180610100016040529081600082015481526020016001820160009054906101000a900473ffffffffffffffffffffffffffffffffffffffff1673ffffffffffffffffffffffffffffffffffffffff1673ffffffffffffffffffffffffffffffffffffffff1681526020016002820180546122ce90614526565b80601f01602080910402602001604051908101604052809291908181526020018280546122fa90614526565b80156123475780601f1061231c57610100808354040283529160200191612347565b820191906000526020600020905b81548152906001019060200180831161232a57829003601f168201915b5050505050815260200160038201805461236090614526565b80601f016020809104026020016040519081016040528092919081815260200182805461238c90614526565b80156123d95780601f106123ae576101008083540402835291602001916123d9565b820191906000526020600020905b8154815290600101906020018083116123bc57829003601f168201915b505050505081526020016004820180546123f290614526565b80601f016020809104026020016040519081016040528092919081815260200182805461241e90614526565b801561246b5780601f106124405761010080835404028352916020019161246b565b820191906000526020600020905b81548152906001019060200180831161244e57829003601f168201915b5050505050815260200160058201805461248490614526565b80601f01602080910402602001604051908101604052809291908181526020018280546124b090614526565b80156124fd5780601f106124d2576101008083540402835291602001916124fd565b820191906000526020600020905b8154815290600101906020018083116124e057829003601f168201915b50505050508152602001600682015481526020016007820154815250509050919050565b6000600760003373ffffffffffffffffffffffffffffffffffffffff1673ffffffffffffffffffffffffffffffffffffffff16815260200190815260200160002060030160149054906101000a900460ff16905090565b6000803373ffffffffffffffffffffffffffffffffffffffff1673ffffffffffffffffffffffffffffffffffffffff16815260200190815260200160002060000160029054906101000a900460ff16612606576040517f08c379a00000000000000000000000000000000000000000000000000000000081526004016125fd90614211565b60405180910390fd5b61260e610e70565b1561264e576040517f08c379a000000000000000000000000000000000000000000000000000000000815260040161264590614171565b60405180910390fd5b6040518060e001604052808681526020018581526020018481526020018381526020018281526020013373ffffffffffffffffffffffffffffffffffffffff16815260200160011515815250600860003373ffffffffffffffffffffffffffffffffffffffff1673ffffffffffffffffffffffffffffffffffffffff16815260200190815260200160002060008201518160000190805190602001906126f5929190613079565b506020820151816001019080519060200190612712929190613079565b50604082015181600201908051906020019061272f929190613079565b50606082015181600301908051906020019061274c929190613079565b506080820151816004015560a08201518160050160006101000a81548173ffffffffffffffffffffffffffffffffffffffff021916908373ffffffffffffffffffffffffffffffffffffffff16021790555060c08201518160050160146101000a81548160ff021916908315150217905550905050604051806101000160405280600260008973ffffffffffffffffffffffffffffffffffffffff1673ffffffffffffffffffffffffffffffffffffffff1681526020019081526020016000205481526020018773ffffffffffffffffffffffffffffffffffffffff16815260200186815260200185815260200184815260200183815260200182815260200142815250600460008873ffffffffffffffffffffffffffffffffffffffff1673ffffffffffffffffffffffffffffffffffffffff1681526020019081526020016000206000820151816000015560208201518160010160006101000a81548173ffffffffffffffffffffffffffffffffffffffff021916908373ffffffffffffffffffffffffffffffffffffffff16021790555060408201518160020190805190602001906128fc929190613079565b506060820151816003019080519060200190612919929190613079565b506080820151816004019080519060200190612936929190613079565b5060a0820151816005019080519060200190612953929190613079565b5060c0820151816006015560e082015181600701559050506006339080600181540180825580915050600190039060005260206000200160009091909190916101000a81548173ffffffffffffffffffffffffffffffffffffffff021916908373ffffffffffffffffffffffffffffffffffffffff16021790555060016000808873ffffffffffffffffffffffffffffffffffffffff1673ffffffffffffffffffffffffffffffffffffffff16815260200190815260200160002060000160016101000a81548160ff0219169083151502179055507f16b4531ec08071dd91dce0dd356a807e7cb190631fc55ac5660a2f66cb6a837d600260008873ffffffffffffffffffffffffffffffffffffffff1673ffffffffffffffffffffffffffffffffffffffff1681526020019081526020016000206000815480929190612a9990614589565b9190505587604051612aac929190614295565b60405180910390a1505050505050565b6000803373ffffffffffffffffffffffffffffffffffffffff1673ffffffffffffffffffffffffffffffffffffffff16815260200190815260200160002060000160009054906101000a900460ff16612b4a576040517f08c379a0000000000000000000000000000000000000000000000000000000008152600401612b41906141d1565b60405180910390fd5b666a94d74f43000080341015612b95576040517f08c379a0000000000000000000000000000000000000000000000000000000008152600401612b8c906141b1565b60405180910390fd5b60016000808473ffffffffffffffffffffffffffffffffffffffff1673ffffffffffffffffffffffffffffffffffffffff16815260200190815260200160002060000160026101000a81548160ff0219169083151502179055508173ffffffffffffffffffffffffffffffffffffffff166108fc666a94d74f4300009081150290604051600060405180830381858888f19350505050158015612c3c573d6000803e3d6000fd5b505050565b60606000600260008473ffffffffffffffffffffffffffffffffffffffff1673ffffffffffffffffffffffffffffffffffffffff16815260200190815260200160002054905060008167ffffffffffffffff811115612cc9577f4e487b7100000000000000000000000000000000000000000000000000000000600052604160045260246000fd5b604051908082528060200260200182016040528015612d0257816020015b612cef613289565b815260200190600190039081612ce75790505b50905060005b8281101561306e57600460008673ffffffffffffffffffffffffffffffffffffffff1673ffffffffffffffffffffffffffffffffffffffff16815260200190815260200160002060405180610100016040529081600082015481526020016001820160009054906101000a900473ffffffffffffffffffffffffffffffffffffffff1673ffffffffffffffffffffffffffffffffffffffff1673ffffffffffffffffffffffffffffffffffffffff168152602001600282018054612dcb90614526565b80601f0160208091040260200160405190810160405280929190818152602001828054612df790614526565b8015612e445780601f10612e1957610100808354040283529160200191612e44565b820191906000526020600020905b815481529060010190602001808311612e2757829003601f168201915b50505050508152602001600382018054612e5d90614526565b80601f0160208091040260200160405190810160405280929190818152602001828054612e8990614526565b8015612ed65780601f10612eab57610100808354040283529160200191612ed6565b820191906000526020600020905b815481529060010190602001808311612eb957829003601f168201915b50505050508152602001600482018054612eef90614526565b80601f0160208091040260200160405190810160405280929190818152602001828054612f1b90614526565b8015612f685780601f10612f3d57610100808354040283529160200191612f68565b820191906000526020600020905b815481529060010190602001808311612f4b57829003601f168201915b50505050508152602001600582018054612f8190614526565b80601f0160208091040260200160405190810160405280929190818152602001828054612fad90614526565b8015612ffa5780601f10612fcf57610100808354040283529160200191612ffa565b820191906000526020600020905b815481529060010190602001808311612fdd57829003601f168201915b5050505050815260200160068201548152602001600782015481525050828281518110613050577f4e487b7100000000000000000000000000000000000000000000000000000000600052603260045260246000fd5b6020026020010181905250808061306690614589565b915050612d08565b508092505050919050565b82805461308590614526565b90600052602060002090601f0160209004810192826130a757600085556130ee565b82601f106130c057805160ff19168380011785556130ee565b828001600101855582156130ee579182015b828111156130ed5782518255916020019190600101906130d2565b5b5090506130fb91906132e4565b5090565b604051806101200160405280600081526020016060815260200160608152602001600073ffffffffffffffffffffffffffffffffffffffff168152602001600073ffffffffffffffffffffffffffffffffffffffff16815260200160008152602001600073ffffffffffffffffffffffffffffffffffffffff16815260200160608152602001606081525090565b6040518060a00160405280606081526020016060815260200160608152602001600073ffffffffffffffffffffffffffffffffffffffff1681526020016000151581525090565b828054828255906000526020600020908101928215613223579160200282015b82811115613222578251829080519060200190613212929190613079565b50916020019190600101906131f4565b5b5090506132309190613301565b5090565b6040518060e001604052806060815260200160608152602001606081526020016060815260200160008152602001600073ffffffffffffffffffffffffffffffffffffffff1681526020016000151581525090565b60405180610100016040528060008152602001600073ffffffffffffffffffffffffffffffffffffffff1681526020016060815260200160608152602001606081526020016060815260200160008152602001600081525090565b5b808211156132fd5760008160009055506001016132e5565b5090565b5b8082111561332157600081816133189190613325565b50600101613302565b5090565b50805461333190614526565b6000825580601f106133435750613362565b601f01602090049060005260206000209081019061336191906132e4565b5b50565b6000613378613373846142e3565b6142be565b9050808382526020820190508285602086028201111561339757600080fd5b60005b858110156133e157813567ffffffffffffffff8111156133b957600080fd5b8086016133c6898261347d565b8552602085019450602084019350505060018101905061339a565b5050509392505050565b60006133fe6133f98461430f565b6142be565b90508281526020810184848401111561341657600080fd5b6134218482856144e4565b509392505050565b600081359050613438816147de565b92915050565b60008135905061344d816147f5565b92915050565b600082601f83011261346457600080fd5b8135613474848260208601613365565b91505092915050565b600082601f83011261348e57600080fd5b813561349e8482602086016133eb565b91505092915050565b6000813590506134b68161480c565b92915050565b6000602082840312156134ce57600080fd5b60006134dc84828501613429565b91505092915050565b6000602082840312156134f757600080fd5b60006135058482850161343e565b91505092915050565b600080600080600080600060e0888a03121561352957600080fd5b60006135378a828b01613429565b97505060206135488a828b01613429565b965050604088013567ffffffffffffffff81111561356557600080fd5b6135718a828b0161347d565b955050606088013567ffffffffffffffff81111561358e57600080fd5b61359a8a828b0161347d565b94505060806135ab8a828b01613429565b93505060a088013567ffffffffffffffff8111156135c857600080fd5b6135d48a828b01613453565b92505060c088013567ffffffffffffffff8111156135f157600080fd5b6135fd8a828b0161347d565b91505092959891949750929550565b60008060008060008060c0878903121561362557600080fd5b600061363389828a01613429565b965050602087013567ffffffffffffffff81111561365057600080fd5b61365c89828a0161347d565b955050604087013567ffffffffffffffff81111561367957600080fd5b61368589828a0161347d565b945050606087013567ffffffffffffffff8111156136a257600080fd5b6136ae89828a0161347d565b935050608087013567ffffffffffffffff8111156136cb57600080fd5b6136d789828a0161347d565b92505060a06136e889828a016134a7565b9150509295509295509295565b6000806040838503121561370857600080fd5b600061371685828601613429565b9250506020613727858286016134a7565b9150509250929050565b60008060006060848603121561374657600080fd5b600084013567ffffffffffffffff81111561376057600080fd5b61376c8682870161347d565b935050602084013567ffffffffffffffff81111561378957600080fd5b6137958682870161347d565b925050604084013567ffffffffffffffff8111156137b257600080fd5b6137be8682870161347d565b9150509250925092565b60006137d48383613ab1565b905092915050565b60006137e88383613c02565b905092915050565b60006137fc8383613cb3565b905092915050565b60006138108383613e3d565b905092915050565b60006138248383613ec1565b905092915050565b6138358161448a565b82525050565b6138448161448a565b82525050565b600061385582614390565b61385f8185614413565b93508360208202850161387185614340565b8060005b858110156138ad578484038952815161388e85826137c8565b9450613899836143d2565b925060208a01995050600181019050613875565b50829750879550505050505092915050565b60006138ca8261439b565b6138d48185614424565b9350836020820285016138e685614350565b8060005b85811015613922578484038952815161390385826137dc565b945061390e836143df565b925060208a019950506001810190506138ea565b50829750879550505050505092915050565b600061393f826143a6565b6139498185614435565b93508360208202850161395b85614360565b8060005b85811015613997578484038952815161397885826137f0565b9450613983836143ec565b925060208a0199505060018101905061395f565b50829750879550505050505092915050565b60006139b4826143b1565b6139be8185614446565b9350836020820285016139d085614370565b8060005b85811015613a0c57848403895281516139ed8582613804565b94506139f8836143f9565b925060208a019950506001810190506139d4565b50829750879550505050505092915050565b6000613a29826143bc565b613a338185614457565b935083602082028501613a4585614380565b8060005b85811015613a815784840389528151613a628582613818565b9450613a6d83614406565b925060208a01995050600181019050613a49565b50829750879550505050505092915050565b613a9c816144ae565b82525050565b613aab816144ae565b82525050565b6000613abc826143c7565b613ac68185614468565b9350613ad68185602086016144f3565b613adf8161465f565b840191505092915050565b6000613af7601e83614479565b9150613b0282614670565b602082019050919050565b6000613b1a601c83614479565b9150613b2582614699565b602082019050919050565b6000613b3d601983614479565b9150613b48826146c2565b602082019050919050565b6000613b60602883614479565b9150613b6b826146eb565b604082019050919050565b6000613b83601283614479565b9150613b8e8261473a565b602082019050919050565b6000613ba6601383614479565b9150613bb182614763565b602082019050919050565b6000613bc9602083614479565b9150613bd48261478c565b602082019050919050565b6000613bec601d83614479565b9150613bf7826147b5565b602082019050919050565b600060e0830160008301518482036000860152613c1f8282613ab1565b91505060208301518482036020860152613c398282613ab1565b91505060408301518482036040860152613c538282613ab1565b91505060608301518482036060860152613c6d8282613ab1565b9150506080830151613c826080860182614075565b5060a0830151613c9560a086018261382c565b5060c0830151613ca860c0860182613a93565b508091505092915050565b600061010083016000830151613ccc6000860182614075565b506020830151613cdf602086018261382c565b5060408301518482036040860152613cf78282613ab1565b91505060608301518482036060860152613d118282613ab1565b91505060808301518482036080860152613d2b8282613ab1565b91505060a083015184820360a0860152613d458282613ab1565b91505060c0830151613d5a60c0860182614075565b5060e0830151613d6d60e0860182614075565b508091505092915050565b600061010083016000830151613d916000860182614075565b506020830151613da4602086018261382c565b5060408301518482036040860152613dbc8282613ab1565b91505060608301518482036060860152613dd68282613ab1565b91505060808301518482036080860152613df08282613ab1565b91505060a083015184820360a0860152613e0a8282613ab1565b91505060c0830151613e1f60c0860182614075565b5060e0830151613e3260e0860182614075565b508091505092915050565b600060a0830160008301518482036000860152613e5a8282613ab1565b91505060208301518482036020860152613e748282613ab1565b91505060408301518482036040860152613e8e8282613ab1565b9150506060830151613ea3606086018261382c565b506080830151613eb66080860182613a93565b508091505092915050565b600061012083016000830151613eda6000860182614075565b5060208301518482036020860152613ef28282613ab1565b91505060408301518482036040860152613f0c8282613ab1565b9150506060830151613f21606086018261382c565b506080830151613f34608086018261382c565b5060a0830151613f4760a0860182614075565b5060c0830151613f5a60c086018261382c565b5060e083015184820360e0860152613f72828261384a565b915050610100830151848203610100860152613f8e8282613ab1565b9150508091505092915050565b600061012083016000830151613fb46000860182614075565b5060208301518482036020860152613fcc8282613ab1565b91505060408301518482036040860152613fe68282613ab1565b9150506060830151613ffb606086018261382c565b50608083015161400e608086018261382c565b5060a083015161402160a0860182614075565b5060c083015161403460c086018261382c565b5060e083015184820360e086015261404c828261384a565b9150506101008301518482036101008601526140688282613ab1565b9150508091505092915050565b61407e816144da565b82525050565b61408d816144da565b82525050565b60006020820190506140a8600083018461383b565b92915050565b600060208201905081810360008301526140c881846138bf565b905092915050565b600060208201905081810360008301526140ea8184613934565b905092915050565b6000602082019050818103600083015261410c81846139a9565b905092915050565b6000602082019050818103600083015261412e8184613a1e565b905092915050565b600060208201905061414b6000830184613aa2565b92915050565b6000602082019050818103600083015261416a81613aea565b9050919050565b6000602082019050818103600083015261418a81613b0d565b9050919050565b600060208201905081810360008301526141aa81613b30565b9050919050565b600060208201905081810360008301526141ca81613b53565b9050919050565b600060208201905081810360008301526141ea81613b76565b9050919050565b6000602082019050818103600083015261420a81613b99565b9050919050565b6000602082019050818103600083015261422a81613bbc565b9050919050565b6000602082019050818103600083015261424a81613bdf565b9050919050565b6000602082019050818103600083015261426b8184613d78565b905092915050565b6000602082019050818103600083015261428d8184613f9b565b905092915050565b60006040820190506142aa6000830185614084565b6142b7602083018461383b565b9392505050565b60006142c86142d9565b90506142d48282614558565b919050565b6000604051905090565b600067ffffffffffffffff8211156142fe576142fd614630565b5b602082029050602081019050919050565b600067ffffffffffffffff82111561432a57614329614630565b5b6143338261465f565b9050602081019050919050565b6000819050602082019050919050565b6000819050602082019050919050565b6000819050602082019050919050565b6000819050602082019050919050565b6000819050602082019050919050565b600081519050919050565b600081519050919050565b600081519050919050565b600081519050919050565b600081519050919050565b600081519050919050565b6000602082019050919050565b6000602082019050919050565b6000602082019050919050565b6000602082019050919050565b6000602082019050919050565b600082825260208201905092915050565b600082825260208201905092915050565b600082825260208201905092915050565b600082825260208201905092915050565b600082825260208201905092915050565b600082825260208201905092915050565b600082825260208201905092915050565b6000614495826144ba565b9050919050565b60006144a7826144ba565b9050919050565b60008115159050919050565b600073ffffffffffffffffffffffffffffffffffffffff82169050919050565b6000819050919050565b82818337600083830152505050565b60005b838110156145115780820151818401526020810190506144f6565b83811115614520576000848401525b50505050565b6000600282049050600182168061453e57607f821691505b6020821081141561455257614551614601565b5b50919050565b6145618261465f565b810181811067ffffffffffffffff821117156145805761457f614630565b5b80604052505050565b6000614594826144da565b91507fffffffffffffffffffffffffffffffffffffffffffffffffffffffffffffffff8214156145c7576145c66145d2565b5b600182019050919050565b7f4e487b7100000000000000000000000000000000000000000000000000000000600052601160045260246000fd5b7f4e487b7100000000000000000000000000000000000000000000000000000000600052602260045260246000fd5b7f4e487b7100000000000000000000000000000000000000000000000000000000600052604160045260246000fd5b6000601f19601f8301169050919050565b7f596f7520617265206e6f74207265676973746572656420646f63746f722e0000600082015250565b7f446f63746f7220697320616c7265616479207265676973746572656400000000600082015250565b7f496e76616c69642070617469656e74207265636f726420494400000000000000600082015250565b7f616d6f756e7420657863656564206f76657220746865207472616e736163746960008201527f6f6e2076616c7565000000000000000000000000000000000000000000000000602082015250565b7f596f7520617265206e6f742061646d696e2e0000000000000000000000000000600082015250565b7f596f7520617265206e6f74207669657765722e00000000000000000000000000600082015250565b7f596f7520617265206e6f7420756e7265676973746572656420646f63746f722e600082015250565b7f50617469656e7420697320616c72656164792072656769737465726564000000600082015250565b6147e78161448a565b81146147f257600080fd5b50565b6147fe8161449c565b811461480957600080fd5b50565b614815816144da565b811461482057600080fd5b5056fea2646970667358221220ee82d966afd6dac89044ea69d7cd8d62c4031a54d8a2f4bcbb642e49f133fc8464736f6c63430008040033",
  "immutableReferences": {},
  "source": "// SPDX-License-Identifier: UNLICENSED\r\n\r\n/**\r\n *@dev You can find useful smart contract\r\n *@author Manikanta\r\n */\r\n\r\npragma solidity ^0.8.4;\r\n\r\ncontract HealthCare {\r\n    struct UserRole {\r\n        bool isAdmin;\r\n        bool isRegisteredDoctor;\r\n        bool isUnregisteredDoctor;\r\n        bool isPatient;\r\n        bool isGuest;\r\n    }\r\n\r\n    struct PatientInfo {\r\n        string name;\r\n        string nationalId;\r\n        string gender;\r\n        address id;\r\n        bool registered;\r\n    }\r\n\r\n    struct DoctorInfo {\r\n        string name;\r\n        string nationalId;\r\n        string gender;\r\n        string specialty;\r\n        uint yearsOfExperience;\r\n        address id;\r\n        bool registered;\r\n    }\r\n\r\n    struct PatientRecord {\r\n        uint256 id;\r\n        string title;\r\n        string description;\r\n        address doctor;\r\n        address patient;\r\n        uint256 date;\r\n        address medicalCenter;\r\n        string[] tags;\r\n        string attachment;\r\n    }\r\n\r\n    struct DoctorRecord {\r\n        uint256 id;\r\n        address doctor;\r\n        string name;\r\n        string nationalId;\r\n        string gender;\r\n        string specialty;\r\n        uint yearsOfExperience;\r\n        uint256 date;\r\n    }\r\n    event PatientRecordPublished(uint256 id, address patient);\r\n    event DoctorRecordPublished(uint256 id, address doctor);\r\n\r\n    event PatientRegistered(address patient);\r\n    event DoctorRegistered(address doctor);\r\n\r\n    mapping(address => UserRole) private userRoles;\r\n\r\n    mapping(address => uint256) private recordsForPatients;\r\n    mapping(address => uint256) private recordsForDoctors;\r\n    /*\r\n     *@notice it maps the patient address to a nested mapping of unit => PatientRecord\r\n     */\r\n    mapping(address => mapping(uint256 => PatientRecord))\r\n        private patientRecords;\r\n    mapping(address => DoctorRecord) private doctorRecords;\r\n\r\n    address[] private registeredPatients;\r\n    address[] private registeredDoctors;\r\n\r\n    mapping(address => PatientInfo) private patientsInfo;\r\n    mapping(address => DoctorInfo) private doctorsInfo;\r\n\r\n    /*\r\n     *@dev only the creator, maybe admin, has access rights\r\n     */\r\n    constructor() {\r\n        userRoles[msg.sender] = UserRole(true, true,true, false, false);\r\n    }\r\n\r\n    /**\r\n     * --------  modifiers  --------\r\n     */\r\n\r\n    modifier onlyRegisteredDoctors() {\r\n        require(\r\n            userRoles[msg.sender].isRegisteredDoctor,\r\n            'You are not registered doctor.'\r\n        );\r\n        _;\r\n    }\r\n    modifier onlyUnregisteredDoctors() {\r\n        require(\r\n            userRoles[msg.sender].isUnregisteredDoctor,\r\n            'You are not unregistered doctor.'\r\n        );\r\n        _;\r\n    }\r\n\r\n    modifier onlyAdmins() {\r\n        require(\r\n            userRoles[msg.sender].isAdmin,\r\n            'You are not admin.'\r\n        );\r\n        _;\r\n    }\r\n\r\n    modifier onlyViewer(address _patient) {\r\n        bool isAdmin = userRoles[msg.sender].isAdmin;\r\n        bool isRegisteredDoctor = userRoles[msg.sender].isRegisteredDoctor;\r\n        bool isUnregisteredDoctor = userRoles[msg.sender].isUnregisteredDoctor;\r\n        bool isPatient = (msg.sender == _patient);\r\n        bool registered = isRegisteredAsPatient();\r\n        require(\r\n            isAdmin || isRegisteredDoctor || isUnregisteredDoctor || (isPatient && registered),\r\n            'You are not viewer.'\r\n        );\r\n        _;\r\n    }\r\n\r\n    modifier payETH(uint256 amount) {\r\n        require(\r\n            msg.value >= amount,\r\n            'amount exceed over the transaction value'\r\n        );\r\n        _;\r\n    }\r\n\r\n    /** \r\n    * ---------  Check the availablility to Write and Access  -----------\r\n    */\r\n\r\n    function canWrite() public view returns (bool) {\r\n        return userRoles[msg.sender].isUnregisteredDoctor || userRoles[msg.sender].isRegisteredDoctor;\r\n    }\r\n\r\n    function canGiveAccess() public view returns (bool) {\r\n        return userRoles[msg.sender].isAdmin;\r\n    }\r\n\r\n    /**\r\n    * ----------  Add and Get Records  ----------\r\n    */\r\n\r\n    function addPatientRecord(\r\n        address _patient,\r\n        address _doctor,\r\n        string memory _title,\r\n        string memory _description,\r\n        address _medicalCenter,\r\n        string[] memory _tags,\r\n        string memory _attachment\r\n    ) public onlyRegisteredDoctors {\r\n        patientRecords[_patient][recordsForPatients[_patient]] = PatientRecord(\r\n            recordsForPatients[_patient],\r\n            _title,\r\n            _description,\r\n            _doctor,\r\n            _patient,\r\n            block.timestamp,\r\n            _medicalCenter,\r\n            _tags,\r\n            _attachment\r\n        );\r\n        emit PatientRecordPublished(recordsForPatients[_patient]++, _patient);\r\n    }\r\n\r\n    function getPatientRecord(address _patient, uint256 _recordId)\r\n        public\r\n        view\r\n        onlyViewer(_patient)\r\n        returns (PatientRecord memory)\r\n    {\r\n        require(\r\n            recordsForPatients[_patient] > _recordId,\r\n            'Invalid patient record ID'\r\n        );\r\n        return patientRecords[_patient][_recordId];\r\n    }\r\n\r\n    function getPatientRecords(address _patient)\r\n        public\r\n        view\r\n        onlyViewer(_patient)\r\n        returns (PatientRecord[] memory)\r\n    {\r\n        uint256 recordsCountForUser = recordsForPatients[_patient];\r\n        PatientRecord[] memory result = new PatientRecord[](\r\n            recordsCountForUser\r\n        );\r\n        for (uint256 i = 0; i < recordsCountForUser; i++) {\r\n            result[i] = patientRecords[_patient][i];\r\n        }\r\n        return result;\r\n    }\r\n\r\n\r\n\r\n    function getPatientsInfo()\r\n        public\r\n        view\r\n        returns (PatientInfo[] memory)\r\n    {\r\n        uint256 registeredPatientsCount = registeredPatients.length;\r\n        PatientInfo[] memory result = new PatientInfo[](\r\n            registeredPatientsCount\r\n        );\r\n        for (uint256 i = 0; i < registeredPatientsCount; i++) {\r\n            address currentPatient = registeredPatients[i];\r\n            result[i] = patientsInfo[currentPatient];\r\n        }\r\n        return result;\r\n    }\r\n\r\n    function getDoctorsInfo()\r\n        public\r\n        view\r\n        returns (DoctorInfo[] memory)\r\n    {\r\n        uint256 registeredDoctorsCount = registeredDoctors.length;\r\n        DoctorInfo[] memory result = new DoctorInfo[](\r\n            registeredDoctorsCount\r\n        );\r\n        for (uint256 i = 0; i < registeredDoctorsCount; i++) {\r\n            address currentDoctor = registeredDoctors[i];\r\n            result[i] = doctorsInfo[currentDoctor];\r\n        }\r\n        return result;\r\n    }\r\n\r\n    /** \r\n    * ---------  Register as Patient  -----------\r\n    */\r\n\r\n    function isRegisteredAsPatient() public view returns (bool) {\r\n        return patientsInfo[msg.sender].registered;\r\n    }\r\n\r\n    function registerAsPatient(\r\n        string memory _name,\r\n        string memory _nationalId,\r\n        string memory _gender\r\n    ) public {\r\n        require(!isRegisteredAsPatient(), 'Patient is already registered');\r\n        patientsInfo[msg.sender] = PatientInfo(\r\n            _name,\r\n            _nationalId,\r\n            _gender,\r\n            msg.sender,\r\n            true\r\n        );\r\n        registeredPatients.push(msg.sender);\r\n        emit PatientRegistered(msg.sender);\r\n    }\r\n    /** \r\n    * ---------  Register as Doctor  -----------\r\n    */\r\n\r\n    function isRegisteredAsDoctor() public view returns (bool) {\r\n        return doctorsInfo[msg.sender].registered;\r\n    }\r\n\r\n    // function registerAsDoctor(\r\n    //     string memory _name,\r\n    //     string memory _nationalId,\r\n    //     string memory _gender,\r\n    //     string memory _specialty,\r\n    //     uint256 _yearsOfExperience\r\n    // ) public onlyUnregisteredDoctors {\r\n    //     require(!isRegisteredAsDoctor(), 'Doctor is already registered');\r\n    //     doctorsInfo[msg.sender] = DoctorInfo(\r\n    //         _name,\r\n    //         _nationalId,\r\n    //         _gender,\r\n    //         _specialty,\r\n    //         _yearsOfExperience,\r\n    //         msg.sender,\r\n    //         true\r\n    //     );\r\n    //     registeredDoctors.push(msg.sender);\r\n    //     userRoles[msg.sender].isRegisteredDoctor;\r\n    //     emit DoctorRegistered(msg.sender);\r\n    // }\r\n    function registerAsDoctor(\r\n        address _doctor,\r\n        string memory _name,\r\n        string memory _nationalId,\r\n        string memory _gender,\r\n        string memory _specialty,\r\n        uint256 _yearsOfExperience\r\n    ) public onlyUnregisteredDoctors {\r\n        require(!isRegisteredAsDoctor(), 'Doctor is already registered');\r\n        doctorsInfo[msg.sender] = DoctorInfo(\r\n            _name,\r\n            _nationalId,\r\n            _gender,\r\n            _specialty,\r\n            _yearsOfExperience,\r\n            msg.sender,\r\n            true\r\n        );\r\n        doctorRecords[_doctor] = DoctorRecord(\r\n            recordsForDoctors[_doctor],\r\n            _doctor,\r\n            _name,\r\n            _nationalId,\r\n            _gender,\r\n            _specialty,\r\n            _yearsOfExperience,\r\n            block.timestamp\r\n        );\r\n        registeredDoctors.push(msg.sender);\r\n        userRoles[_doctor].isRegisteredDoctor = true;\r\n        emit DoctorRecordPublished(recordsForDoctors[_doctor]++, _doctor);\r\n    }\r\n\r\n    function getDoctorRecord(address _doctor)\r\n        public\r\n        view\r\n        returns (DoctorRecord memory)\r\n    {\r\n        // require(\r\n        //     recordsForDoctors[_doctor] > _recordId,\r\n        //     'Invalid doctor record ID'\r\n        // );\r\n        return doctorRecords[_doctor];\r\n    }\r\n\r\n    function getDoctorRecords(address _doctor)\r\n        public\r\n        view\r\n        returns (DoctorRecord[] memory)\r\n    {\r\n        uint256 recordsCountForUser = recordsForDoctors[_doctor];\r\n        DoctorRecord[] memory result = new DoctorRecord[](\r\n            recordsCountForUser\r\n        );\r\n        for (uint256 i = 0; i < recordsCountForUser; i++) {\r\n            result[i] = doctorRecords[_doctor];\r\n        }\r\n        return result;\r\n    }\r\n\r\n\r\n    /**\r\n     * ----------  grant Access to the others  --------------\r\n     */\r\n    function grantAdminAccess(address payable _user)\r\n        public\r\n        payable\r\n        onlyAdmins\r\n        payETH(0.1 ether)\r\n    {\r\n        userRoles[_user].isAdmin = true;\r\n        userRoles[_user].isRegisteredDoctor = true;\r\n        _user.transfer(0.1 ether);\r\n    }\r\n\r\n    function grantWriteAccess(address payable _user)\r\n        public\r\n        payable\r\n        onlyAdmins\r\n        payETH(0.03 ether)\r\n    {\r\n        userRoles[_user].isUnregisteredDoctor = true;\r\n        _user.transfer(0.03 ether);\r\n    }\r\n}\r\n",
  "sourcePath": "E:\\work\\HEALTHCARE\\HealthCareSystem\\contracts\\HealthCare.sol",
  "compiler": {
    "name": "solc",
    "version": "0.8.4+commit.c7e474f2.Emscripten.clang"
  },
  "schemaVersion": "3.4.3",
  "updatedAt": "2022-01-23T18:23:05.002Z",
  "networkType": "ethereum",
  "devdoc": {
    "kind": "dev",
    "methods": {},
    "version": 1
  },
  "userdoc": {
    "kind": "user",
    "methods": {
      "addPatientRecord(address,address,string,string,address,string[],string)": {
        "notice": "----------  Add and Get Records  ----------"
      },
      "canWrite()": {
        "notice": "---------  Check the availablility to Write and Access  -----------"
      },
      "grantAdminAccess(address)": {
        "notice": "----------  grant Access to the others  --------------"
      },
      "isRegisteredAsDoctor()": {
        "notice": "---------  Register as Doctor  -----------"
      },
      "isRegisteredAsPatient()": {
        "notice": "---------  Register as Patient  -----------"
      }
    },
    "version": 1
  }
}