{
  "contractName": "HealthCare",
  "abi": [
    {
      "inputs": [],
      "stateMutability": "nonpayable",
      "type": "constructor"
    },
    {
      "anonymous": false,
      "inputs": [
        {
          "indexed": false,
          "internalType": "uint256",
          "name": "id",
          "type": "uint256"
        },
        {
          "indexed": false,
          "internalType": "address",
          "name": "patient",
          "type": "address"
        }
      ],
      "name": "PatientRecordPublished",
      "type": "event"
    },
    {
      "anonymous": false,
      "inputs": [
        {
          "indexed": false,
          "internalType": "address",
          "name": "patient",
          "type": "address"
        }
      ],
      "name": "PatientRegistered",
      "type": "event"
    },
    {
      "inputs": [],
      "name": "canWrite",
      "outputs": [
        {
          "internalType": "bool",
          "name": "",
          "type": "bool"
        }
      ],
      "stateMutability": "view",
      "type": "function",
      "constant": true
    },
    {
      "inputs": [],
      "name": "canGiveAccess",
      "outputs": [
        {
          "internalType": "bool",
          "name": "",
          "type": "bool"
        }
      ],
      "stateMutability": "view",
      "type": "function",
      "constant": true
    },
    {
      "inputs": [
        {
          "internalType": "address",
          "name": "_patient",
          "type": "address"
        },
        {
          "internalType": "address",
          "name": "_doctor",
          "type": "address"
        },
        {
          "internalType": "string",
          "name": "_title",
          "type": "string"
        },
        {
          "internalType": "string",
          "name": "_description",
          "type": "string"
        },
        {
          "internalType": "address",
          "name": "_medicalCenter",
          "type": "address"
        },
        {
          "internalType": "string[]",
          "name": "_tags",
          "type": "string[]"
        },
        {
          "internalType": "string",
          "name": "_attachment",
          "type": "string"
        }
      ],
      "name": "addPatientRecord",
      "outputs": [],
      "stateMutability": "nonpayable",
      "type": "function"
    },
    {
      "inputs": [
        {
          "internalType": "address",
          "name": "_patient",
          "type": "address"
        },
        {
          "internalType": "uint256",
          "name": "_recordId",
          "type": "uint256"
        }
      ],
      "name": "getPatientRecord",
      "outputs": [
        {
          "components": [
            {
              "internalType": "uint256",
              "name": "id",
              "type": "uint256"
            },
            {
              "internalType": "string",
              "name": "title",
              "type": "string"
            },
            {
              "internalType": "string",
              "name": "description",
              "type": "string"
            },
            {
              "internalType": "address",
              "name": "doctor",
              "type": "address"
            },
            {
              "internalType": "address",
              "name": "patient",
              "type": "address"
            },
            {
              "internalType": "uint256",
              "name": "date",
              "type": "uint256"
            },
            {
              "internalType": "address",
              "name": "medicalCenter",
              "type": "address"
            },
            {
              "internalType": "string[]",
              "name": "tags",
              "type": "string[]"
            },
            {
              "internalType": "string",
              "name": "attachment",
              "type": "string"
            }
          ],
          "internalType": "struct HealthCare.PatientRecord",
          "name": "",
          "type": "tuple"
        }
      ],
      "stateMutability": "view",
      "type": "function",
      "constant": true
    },
    {
      "inputs": [
        {
          "internalType": "address",
          "name": "_patient",
          "type": "address"
        }
      ],
      "name": "getPatientRecords",
      "outputs": [
        {
          "components": [
            {
              "internalType": "uint256",
              "name": "id",
              "type": "uint256"
            },
            {
              "internalType": "string",
              "name": "title",
              "type": "string"
            },
            {
              "internalType": "string",
              "name": "description",
              "type": "string"
            },
            {
              "internalType": "address",
              "name": "doctor",
              "type": "address"
            },
            {
              "internalType": "address",
              "name": "patient",
              "type": "address"
            },
            {
              "internalType": "uint256",
              "name": "date",
              "type": "uint256"
            },
            {
              "internalType": "address",
              "name": "medicalCenter",
              "type": "address"
            },
            {
              "internalType": "string[]",
              "name": "tags",
              "type": "string[]"
            },
            {
              "internalType": "string",
              "name": "attachment",
              "type": "string"
            }
          ],
          "internalType": "struct HealthCare.PatientRecord[]",
          "name": "",
          "type": "tuple[]"
        }
      ],
      "stateMutability": "view",
      "type": "function",
      "constant": true
    },
    {
      "inputs": [],
      "name": "getPatientsInfo",
      "outputs": [
        {
          "components": [
            {
              "internalType": "string",
              "name": "name",
              "type": "string"
            },
            {
              "internalType": "string",
              "name": "nationalId",
              "type": "string"
            },
            {
              "internalType": "string",
              "name": "gender",
              "type": "string"
            },
            {
              "internalType": "address",
              "name": "id",
              "type": "address"
            },
            {
              "internalType": "bool",
              "name": "registered",
              "type": "bool"
            }
          ],
          "internalType": "struct HealthCare.PatientInfo[]",
          "name": "",
          "type": "tuple[]"
        }
      ],
      "stateMutability": "view",
      "type": "function",
      "constant": true
    },
    {
      "inputs": [],
      "name": "isRegistered",
      "outputs": [
        {
          "internalType": "bool",
          "name": "",
          "type": "bool"
        }
      ],
      "stateMutability": "view",
      "type": "function",
      "constant": true
    },
    {
      "inputs": [
        {
          "internalType": "string",
          "name": "_name",
          "type": "string"
        },
        {
          "internalType": "string",
          "name": "_nationalId",
          "type": "string"
        },
        {
          "internalType": "string",
          "name": "_gender",
          "type": "string"
        }
      ],
      "name": "registerAsPatient",
      "outputs": [],
      "stateMutability": "nonpayable",
      "type": "function"
    },
    {
      "inputs": [
        {
          "internalType": "address payable",
          "name": "_user",
          "type": "address"
        }
      ],
      "name": "grantAdminAccess",
      "outputs": [],
      "stateMutability": "payable",
      "type": "function",
      "payable": true
    },
    {
      "inputs": [
        {
          "internalType": "address payable",
          "name": "_user",
          "type": "address"
        }
      ],
      "name": "grantWriteAccess",
      "outputs": [],
      "stateMutability": "payable",
      "type": "function",
      "payable": true
    }
  ],
  "bytecode": "0x608060405234801561001057600080fd5b506040518060800160405280600115158152602001600115158152602001600015158152602001600015158152506000803373ffffffffffffffffffffffffffffffffffffffff1673ffffffffffffffffffffffffffffffffffffffff16815260200190815260200160002060008201518160000160006101000a81548160ff02191690831515021790555060208201518160000160016101000a81548160ff02191690831515021790555060408201518160000160026101000a81548160ff02191690831515021790555060608201518160000160036101000a81548160ff021916908315150217905550905050612ded8061010e6000396000f3fe6080604052600436106100915760003560e01c806353f3b40a1161005957806353f3b40a1461016e5780636d93fa191461019957806377bd1850146101d65780637da45db614610201578063e5a5e6fe1461022a57610091565b80631822faa31461009657806318bd4847146100bf57806322366844146100fc57806322b3127a146101275780634050cee514610143575b600080fd5b3480156100a257600080fd5b506100bd60048036038101906100b89190612274565b610246565b005b3480156100cb57600080fd5b506100e660048036038101906100e191906120e8565b61046d565b6040516100f3919061283a565b60405180910390f35b34801561010857600080fd5b50610111610ae3565b60405161011e919061285c565b60405180910390f35b610141600480360381019061013c9190612111565b610b3a565b005b34801561014f57600080fd5b50610158610d1b565b604051610165919061285c565b60405180910390f35b34801561017a57600080fd5b50610183610d71565b604051610190919061285c565b60405180910390f35b3480156101a557600080fd5b506101c060048036038101906101bb9190612238565b610dc7565b6040516101cd91906128f7565b60405180910390f35b3480156101e257600080fd5b506101eb61139d565b6040516101f89190612818565b60405180910390f35b34801561020d57600080fd5b506102286004803603810190610223919061213a565b6117fb565b005b610244600480360381019061023f9190612111565b611bcf565b005b61024e610ae3565b1561028e576040517f08c379a0000000000000000000000000000000000000000000000000000000008152600401610285906128b7565b60405180910390fd5b6040518060a001604052808481526020018381526020018281526020013373ffffffffffffffffffffffffffffffffffffffff16815260200160011515815250600460003373ffffffffffffffffffffffffffffffffffffffff1673ffffffffffffffffffffffffffffffffffffffff1681526020019081526020016000206000820151816000019080519060200190610329929190611d55565b506020820151816001019080519060200190610346929190611d55565b506040820151816002019080519060200190610363929190611d55565b5060608201518160030160006101000a81548173ffffffffffffffffffffffffffffffffffffffff021916908373ffffffffffffffffffffffffffffffffffffffff16021790555060808201518160030160146101000a81548160ff0219169083151502179055509050506003339080600181540180825580915050600190039060005260206000200160009091909190916101000a81548173ffffffffffffffffffffffffffffffffffffffff021916908373ffffffffffffffffffffffffffffffffffffffff1602179055507fc9fa2003fca4ce0dfc8cb0deae32266b715536df6685365b05b5be96ede8e49c3360405161046091906127fd565b60405180910390a1505050565b60608160008060003373ffffffffffffffffffffffffffffffffffffffff1673ffffffffffffffffffffffffffffffffffffffff16815260200190815260200160002060000160009054906101000a900460ff16905060008060003373ffffffffffffffffffffffffffffffffffffffff1673ffffffffffffffffffffffffffffffffffffffff16815260200190815260200160002060000160019054906101000a900460ff16905060008373ffffffffffffffffffffffffffffffffffffffff163373ffffffffffffffffffffffffffffffffffffffff161490506000610553610ae3565b9050838061055e5750825b8061056f575081801561056e5750805b5b6105ae576040517f08c379a00000000000000000000000000000000000000000000000000000000081526004016105a5906128d7565b60405180910390fd5b6000600160008973ffffffffffffffffffffffffffffffffffffffff1673ffffffffffffffffffffffffffffffffffffffff16815260200190815260200160002054905060008167ffffffffffffffff811115610634577f4e487b7100000000000000000000000000000000000000000000000000000000600052604160045260246000fd5b60405190808252806020026020018201604052801561066d57816020015b61065a611ddb565b8152602001906001900390816106525790505b50905060005b82811015610ad357600260008b73ffffffffffffffffffffffffffffffffffffffff1673ffffffffffffffffffffffffffffffffffffffff168152602001908152602001600020600082815260200190815260200160002060405180610120016040529081600082015481526020016001820180546106f190612b38565b80601f016020809104026020016040519081016040528092919081815260200182805461071d90612b38565b801561076a5780601f1061073f5761010080835404028352916020019161076a565b820191906000526020600020905b81548152906001019060200180831161074d57829003601f168201915b5050505050815260200160028201805461078390612b38565b80601f01602080910402602001604051908101604052809291908181526020018280546107af90612b38565b80156107fc5780601f106107d1576101008083540402835291602001916107fc565b820191906000526020600020905b8154815290600101906020018083116107df57829003601f168201915b505050505081526020016003820160009054906101000a900473ffffffffffffffffffffffffffffffffffffffff1673ffffffffffffffffffffffffffffffffffffffff1673ffffffffffffffffffffffffffffffffffffffff1681526020016004820160009054906101000a900473ffffffffffffffffffffffffffffffffffffffff1673ffffffffffffffffffffffffffffffffffffffff1673ffffffffffffffffffffffffffffffffffffffff168152602001600582015481526020016006820160009054906101000a900473ffffffffffffffffffffffffffffffffffffffff1673ffffffffffffffffffffffffffffffffffffffff1673ffffffffffffffffffffffffffffffffffffffff16815260200160078201805480602002602001604051908101604052809291908181526020016000905b828210156109e257838290600052602060002001805461095590612b38565b80601f016020809104026020016040519081016040528092919081815260200182805461098190612b38565b80156109ce5780601f106109a3576101008083540402835291602001916109ce565b820191906000526020600020905b8154815290600101906020018083116109b157829003601f168201915b505050505081526020019060010190610936565b5050505081526020016008820180546109fa90612b38565b80601f0160208091040260200160405190810160405280929190818152602001828054610a2690612b38565b8015610a735780601f10610a4857610100808354040283529160200191610a73565b820191906000526020600020905b815481529060010190602001808311610a5657829003601f168201915b505050505081525050828281518110610ab5577f4e487b7100000000000000000000000000000000000000000000000000000000600052603260045260246000fd5b60200260200101819052508080610acb90612b9b565b915050610673565b5080975050505050505050919050565b6000600460003373ffffffffffffffffffffffffffffffffffffffff1673ffffffffffffffffffffffffffffffffffffffff16815260200190815260200160002060030160149054906101000a900460ff16905090565b6000803373ffffffffffffffffffffffffffffffffffffffff1673ffffffffffffffffffffffffffffffffffffffff16815260200190815260200160002060000160009054906101000a900460ff16610bc8576040517f08c379a0000000000000000000000000000000000000000000000000000000008152600401610bbf906128d7565b60405180910390fd5b67016345785d8a000080341015610c14576040517f08c379a0000000000000000000000000000000000000000000000000000000008152600401610c0b90612897565b60405180910390fd5b60016000808473ffffffffffffffffffffffffffffffffffffffff1673ffffffffffffffffffffffffffffffffffffffff16815260200190815260200160002060000160006101000a81548160ff02191690831515021790555060016000808473ffffffffffffffffffffffffffffffffffffffff1673ffffffffffffffffffffffffffffffffffffffff16815260200190815260200160002060000160016101000a81548160ff0219169083151502179055508173ffffffffffffffffffffffffffffffffffffffff166108fc678ac7230489e800009081150290604051600060405180830381858888f19350505050158015610d16573d6000803e3d6000fd5b505050565b60008060003373ffffffffffffffffffffffffffffffffffffffff1673ffffffffffffffffffffffffffffffffffffffff16815260200190815260200160002060000160009054906101000a900460ff16905090565b60008060003373ffffffffffffffffffffffffffffffffffffffff1673ffffffffffffffffffffffffffffffffffffffff16815260200190815260200160002060000160019054906101000a900460ff16905090565b610dcf611ddb565b8260008060003373ffffffffffffffffffffffffffffffffffffffff1673ffffffffffffffffffffffffffffffffffffffff16815260200190815260200160002060000160009054906101000a900460ff16905060008060003373ffffffffffffffffffffffffffffffffffffffff1673ffffffffffffffffffffffffffffffffffffffff16815260200190815260200160002060000160019054906101000a900460ff16905060008373ffffffffffffffffffffffffffffffffffffffff163373ffffffffffffffffffffffffffffffffffffffff161490506000610eb3610ae3565b90508380610ebe5750825b80610ecf5750818015610ece5750805b5b610f0e576040517f08c379a0000000000000000000000000000000000000000000000000000000008152600401610f05906128d7565b60405180910390fd5b86600160008a73ffffffffffffffffffffffffffffffffffffffff1673ffffffffffffffffffffffffffffffffffffffff1681526020019081526020016000205411610f8f576040517f08c379a0000000000000000000000000000000000000000000000000000000008152600401610f8690612877565b60405180910390fd5b600260008973ffffffffffffffffffffffffffffffffffffffff1673ffffffffffffffffffffffffffffffffffffffff1681526020019081526020016000206000888152602001908152602001600020604051806101200160405290816000820154815260200160018201805461100590612b38565b80601f016020809104026020016040519081016040528092919081815260200182805461103190612b38565b801561107e5780601f106110535761010080835404028352916020019161107e565b820191906000526020600020905b81548152906001019060200180831161106157829003601f168201915b5050505050815260200160028201805461109790612b38565b80601f01602080910402602001604051908101604052809291908181526020018280546110c390612b38565b80156111105780601f106110e557610100808354040283529160200191611110565b820191906000526020600020905b8154815290600101906020018083116110f357829003601f168201915b505050505081526020016003820160009054906101000a900473ffffffffffffffffffffffffffffffffffffffff1673ffffffffffffffffffffffffffffffffffffffff1673ffffffffffffffffffffffffffffffffffffffff1681526020016004820160009054906101000a900473ffffffffffffffffffffffffffffffffffffffff1673ffffffffffffffffffffffffffffffffffffffff1673ffffffffffffffffffffffffffffffffffffffff168152602001600582015481526020016006820160009054906101000a900473ffffffffffffffffffffffffffffffffffffffff1673ffffffffffffffffffffffffffffffffffffffff1673ffffffffffffffffffffffffffffffffffffffff16815260200160078201805480602002602001604051908101604052809291908181526020016000905b828210156112f657838290600052602060002001805461126990612b38565b80601f016020809104026020016040519081016040528092919081815260200182805461129590612b38565b80156112e25780601f106112b7576101008083540402835291602001916112e2565b820191906000526020600020905b8154815290600101906020018083116112c557829003601f168201915b50505050508152602001906001019061124a565b50505050815260200160088201805461130e90612b38565b80601f016020809104026020016040519081016040528092919081815260200182805461133a90612b38565b80156113875780601f1061135c57610100808354040283529160200191611387565b820191906000526020600020905b81548152906001019060200180831161136a57829003601f168201915b5050505050815250509550505050505092915050565b60606000803373ffffffffffffffffffffffffffffffffffffffff1673ffffffffffffffffffffffffffffffffffffffff16815260200190815260200160002060000160019054906101000a900460ff1661142d576040517f08c379a0000000000000000000000000000000000000000000000000000000008152600401611424906128d7565b60405180910390fd5b6000600380549050905060008167ffffffffffffffff811115611479577f4e487b7100000000000000000000000000000000000000000000000000000000600052604160045260246000fd5b6040519080825280602002602001820160405280156114b257816020015b61149f611e69565b8152602001906001900390816114975790505b50905060005b828110156117f2576000600382815481106114fc577f4e487b7100000000000000000000000000000000000000000000000000000000600052603260045260246000fd5b9060005260206000200160009054906101000a900473ffffffffffffffffffffffffffffffffffffffff169050600460008273ffffffffffffffffffffffffffffffffffffffff1673ffffffffffffffffffffffffffffffffffffffff1681526020019081526020016000206040518060a001604052908160008201805461158390612b38565b80601f01602080910402602001604051908101604052809291908181526020018280546115af90612b38565b80156115fc5780601f106115d1576101008083540402835291602001916115fc565b820191906000526020600020905b8154815290600101906020018083116115df57829003601f168201915b5050505050815260200160018201805461161590612b38565b80601f016020809104026020016040519081016040528092919081815260200182805461164190612b38565b801561168e5780601f106116635761010080835404028352916020019161168e565b820191906000526020600020905b81548152906001019060200180831161167157829003601f168201915b505050505081526020016002820180546116a790612b38565b80601f01602080910402602001604051908101604052809291908181526020018280546116d390612b38565b80156117205780601f106116f557610100808354040283529160200191611720565b820191906000526020600020905b81548152906001019060200180831161170357829003601f168201915b505050505081526020016003820160009054906101000a900473ffffffffffffffffffffffffffffffffffffffff1673ffffffffffffffffffffffffffffffffffffffff1673ffffffffffffffffffffffffffffffffffffffff1681526020016003820160149054906101000a900460ff1615151515815250508383815181106117d3577f4e487b7100000000000000000000000000000000000000000000000000000000600052603260045260246000fd5b60200260200101819052505080806117ea90612b9b565b9150506114b8565b50809250505090565b6000803373ffffffffffffffffffffffffffffffffffffffff1673ffffffffffffffffffffffffffffffffffffffff16815260200190815260200160002060000160019054906101000a900460ff16611889576040517f08c379a0000000000000000000000000000000000000000000000000000000008152600401611880906128d7565b60405180910390fd5b604051806101200160405280600160008a73ffffffffffffffffffffffffffffffffffffffff1673ffffffffffffffffffffffffffffffffffffffff1681526020019081526020016000205481526020018681526020018581526020018773ffffffffffffffffffffffffffffffffffffffff1681526020018873ffffffffffffffffffffffffffffffffffffffff1681526020014281526020018473ffffffffffffffffffffffffffffffffffffffff16815260200183815260200182815250600260008973ffffffffffffffffffffffffffffffffffffffff1673ffffffffffffffffffffffffffffffffffffffff1681526020019081526020016000206000600160008b73ffffffffffffffffffffffffffffffffffffffff1673ffffffffffffffffffffffffffffffffffffffff1681526020019081526020016000205481526020019081526020016000206000820151816000015560208201518160010190805190602001906119ff929190611d55565b506040820151816002019080519060200190611a1c929190611d55565b5060608201518160030160006101000a81548173ffffffffffffffffffffffffffffffffffffffff021916908373ffffffffffffffffffffffffffffffffffffffff16021790555060808201518160040160006101000a81548173ffffffffffffffffffffffffffffffffffffffff021916908373ffffffffffffffffffffffffffffffffffffffff16021790555060a0820151816005015560c08201518160060160006101000a81548173ffffffffffffffffffffffffffffffffffffffff021916908373ffffffffffffffffffffffffffffffffffffffff16021790555060e0820151816007019080519060200190611b18929190611eb0565b50610100820151816008019080519060200190611b36929190611d55565b509050507f48a00f0dc2363c1ebf6b5bbf69a05f9a93019007d3a9071307bc6932463eb216600160008973ffffffffffffffffffffffffffffffffffffffff1673ffffffffffffffffffffffffffffffffffffffff1681526020019081526020016000206000815480929190611bab90612b9b565b9190505588604051611bbe929190612919565b60405180910390a150505050505050565b6000803373ffffffffffffffffffffffffffffffffffffffff1673ffffffffffffffffffffffffffffffffffffffff16815260200190815260200160002060000160009054906101000a900460ff16611c5d576040517f08c379a0000000000000000000000000000000000000000000000000000000008152600401611c54906128d7565b60405180910390fd5b6729a2241af62c000080341015611ca9576040517f08c379a0000000000000000000000000000000000000000000000000000000008152600401611ca090612897565b60405180910390fd5b60016000808473ffffffffffffffffffffffffffffffffffffffff1673ffffffffffffffffffffffffffffffffffffffff16815260200190815260200160002060000160016101000a81548160ff0219169083151502179055508173ffffffffffffffffffffffffffffffffffffffff166108fc666a94d74f4300009081150290604051600060405180830381858888f19350505050158015611d50573d6000803e3d6000fd5b505050565b828054611d6190612b38565b90600052602060002090601f016020900481019282611d835760008555611dca565b82601f10611d9c57805160ff1916838001178555611dca565b82800160010185558215611dca579182015b82811115611dc9578251825591602001919060010190611dae565b5b509050611dd79190611f10565b5090565b604051806101200160405280600081526020016060815260200160608152602001600073ffffffffffffffffffffffffffffffffffffffff168152602001600073ffffffffffffffffffffffffffffffffffffffff16815260200160008152602001600073ffffffffffffffffffffffffffffffffffffffff16815260200160608152602001606081525090565b6040518060a00160405280606081526020016060815260200160608152602001600073ffffffffffffffffffffffffffffffffffffffff1681526020016000151581525090565b828054828255906000526020600020908101928215611eff579160200282015b82811115611efe578251829080519060200190611eee929190611d55565b5091602001919060010190611ed0565b5b509050611f0c9190611f2d565b5090565b5b80821115611f29576000816000905550600101611f11565b5090565b5b80821115611f4d5760008181611f449190611f51565b50600101611f2e565b5090565b508054611f5d90612b38565b6000825580601f10611f6f5750611f8e565b601f016020900490600052602060002090810190611f8d9190611f10565b5b50565b6000611fa4611f9f84612967565b612942565b90508083825260208201905082856020860282011115611fc357600080fd5b60005b8581101561200d57813567ffffffffffffffff811115611fe557600080fd5b808601611ff289826120a9565b85526020850194506020840193505050600181019050611fc6565b5050509392505050565b600061202a61202584612993565b612942565b90508281526020810184848401111561204257600080fd5b61204d848285612af6565b509392505050565b60008135905061206481612d72565b92915050565b60008135905061207981612d89565b92915050565b600082601f83011261209057600080fd5b81356120a0848260208601611f91565b91505092915050565b600082601f8301126120ba57600080fd5b81356120ca848260208601612017565b91505092915050565b6000813590506120e281612da0565b92915050565b6000602082840312156120fa57600080fd5b600061210884828501612055565b91505092915050565b60006020828403121561212357600080fd5b60006121318482850161206a565b91505092915050565b600080600080600080600060e0888a03121561215557600080fd5b60006121638a828b01612055565b97505060206121748a828b01612055565b965050604088013567ffffffffffffffff81111561219157600080fd5b61219d8a828b016120a9565b955050606088013567ffffffffffffffff8111156121ba57600080fd5b6121c68a828b016120a9565b94505060806121d78a828b01612055565b93505060a088013567ffffffffffffffff8111156121f457600080fd5b6122008a828b0161207f565b92505060c088013567ffffffffffffffff81111561221d57600080fd5b6122298a828b016120a9565b91505092959891949750929550565b6000806040838503121561224b57600080fd5b600061225985828601612055565b925050602061226a858286016120d3565b9150509250929050565b60008060006060848603121561228957600080fd5b600084013567ffffffffffffffff8111156122a357600080fd5b6122af868287016120a9565b935050602084013567ffffffffffffffff8111156122cc57600080fd5b6122d8868287016120a9565b925050604084013567ffffffffffffffff8111156122f557600080fd5b612301868287016120a9565b9150509250925092565b600061231783836124e2565b905092915050565b600061232b83836125a7565b905092915050565b600061233f838361262b565b905092915050565b61235081612a9c565b82525050565b61235f81612a9c565b82525050565b6000612370826129f4565b61237a8185612a47565b93508360208202850161238c856129c4565b8060005b858110156123c857848403895281516123a9858261230b565b94506123b483612a20565b925060208a01995050600181019050612390565b50829750879550505050505092915050565b60006123e5826129ff565b6123ef8185612a58565b935083602082028501612401856129d4565b8060005b8581101561243d578484038952815161241e858261231f565b945061242983612a2d565b925060208a01995050600181019050612405565b50829750879550505050505092915050565b600061245a82612a0a565b6124648185612a69565b935083602082028501612476856129e4565b8060005b858110156124b257848403895281516124938582612333565b945061249e83612a3a565b925060208a0199505060018101905061247a565b50829750879550505050505092915050565b6124cd81612ac0565b82525050565b6124dc81612ac0565b82525050565b60006124ed82612a15565b6124f78185612a7a565b9350612507818560208601612b05565b61251081612c71565b840191505092915050565b6000612528601983612a8b565b915061253382612c82565b602082019050919050565b600061254b602883612a8b565b915061255682612cab565b604082019050919050565b600061256e601d83612a8b565b915061257982612cfa565b602082019050919050565b6000612591603d83612a8b565b915061259c82612d23565b604082019050919050565b600060a08301600083015184820360008601526125c482826124e2565b915050602083015184820360208601526125de82826124e2565b915050604083015184820360408601526125f882826124e2565b915050606083015161260d6060860182612347565b50608083015161262060808601826124c4565b508091505092915050565b60006101208301600083015161264460008601826127df565b506020830151848203602086015261265c82826124e2565b9150506040830151848203604086015261267682826124e2565b915050606083015161268b6060860182612347565b50608083015161269e6080860182612347565b5060a08301516126b160a08601826127df565b5060c08301516126c460c0860182612347565b5060e083015184820360e08601526126dc8282612365565b9150506101008301518482036101008601526126f882826124e2565b9150508091505092915050565b60006101208301600083015161271e60008601826127df565b506020830151848203602086015261273682826124e2565b9150506040830151848203604086015261275082826124e2565b91505060608301516127656060860182612347565b5060808301516127786080860182612347565b5060a083015161278b60a08601826127df565b5060c083015161279e60c0860182612347565b5060e083015184820360e08601526127b68282612365565b9150506101008301518482036101008601526127d282826124e2565b9150508091505092915050565b6127e881612aec565b82525050565b6127f781612aec565b82525050565b60006020820190506128126000830184612356565b92915050565b6000602082019050818103600083015261283281846123da565b905092915050565b60006020820190508181036000830152612854818461244f565b905092915050565b600060208201905061287160008301846124d3565b92915050565b600060208201905081810360008301526128908161251b565b9050919050565b600060208201905081810360008301526128b08161253e565b9050919050565b600060208201905081810360008301526128d081612561565b9050919050565b600060208201905081810360008301526128f081612584565b9050919050565b600060208201905081810360008301526129118184612705565b905092915050565b600060408201905061292e60008301856127ee565b61293b6020830184612356565b9392505050565b600061294c61295d565b90506129588282612b6a565b919050565b6000604051905090565b600067ffffffffffffffff82111561298257612981612c42565b5b602082029050602081019050919050565b600067ffffffffffffffff8211156129ae576129ad612c42565b5b6129b782612c71565b9050602081019050919050565b6000819050602082019050919050565b6000819050602082019050919050565b6000819050602082019050919050565b600081519050919050565b600081519050919050565b600081519050919050565b600081519050919050565b6000602082019050919050565b6000602082019050919050565b6000602082019050919050565b600082825260208201905092915050565b600082825260208201905092915050565b600082825260208201905092915050565b600082825260208201905092915050565b600082825260208201905092915050565b6000612aa782612acc565b9050919050565b6000612ab982612acc565b9050919050565b60008115159050919050565b600073ffffffffffffffffffffffffffffffffffffffff82169050919050565b6000819050919050565b82818337600083830152505050565b60005b83811015612b23578082015181840152602081019050612b08565b83811115612b32576000848401525b50505050565b60006002820490506001821680612b5057607f821691505b60208210811415612b6457612b63612c13565b5b50919050565b612b7382612c71565b810181811067ffffffffffffffff82111715612b9257612b91612c42565b5b80604052505050565b6000612ba682612aec565b91507fffffffffffffffffffffffffffffffffffffffffffffffffffffffffffffffff821415612bd957612bd8612be4565b5b600182019050919050565b7f4e487b7100000000000000000000000000000000000000000000000000000000600052601160045260246000fd5b7f4e487b7100000000000000000000000000000000000000000000000000000000600052602260045260246000fd5b7f4e487b7100000000000000000000000000000000000000000000000000000000600052604160045260246000fd5b6000601f19601f8301169050919050565b7f496e76616c69642070617469656e74207265636f726420494400000000000000600082015250565b7f616d6f756e7420657863656564206f76657220746865207472616e736163746960008201527f6f6e2076616c7565000000000000000000000000000000000000000000000000602082015250565b7f50617469656e7420697320616c72656164792072656769737465726564000000600082015250565b7f596f752068617665206e6f2073756666696369656e742061636365737320726960008201527f67687420746f20696d706c656d656e74207468697320616374696f6e2e000000602082015250565b612d7b81612a9c565b8114612d8657600080fd5b50565b612d9281612aae565b8114612d9d57600080fd5b50565b612da981612aec565b8114612db457600080fd5b5056fea264697066735822122045d84666b2f1c29fa0f3ff9615d3a056df63bca2b4eaf82b71401b646539981864736f6c63430008040033",
  "immutableReferences": {},
  "source": "// SPDX-License-Identifier: UNLICENSED\r\n\r\n/**\r\n *@dev You can find useful smart contract\r\n *@author Manikanta\r\n */\r\n\r\npragma solidity ^0.8.4;\r\n\r\ncontract HealthCare {\r\n    struct UserRole {\r\n        bool isAdmin;\r\n        bool isDoctor;\r\n        bool isPatient;\r\n        bool isGuest;\r\n    }\r\n\r\n    struct PatientInfo {\r\n        string name;\r\n        string nationalId;\r\n        string gender;\r\n        address id;\r\n        bool registered;\r\n    }\r\n\r\n    struct PatientRecord {\r\n        uint256 id;\r\n        string title;\r\n        string description;\r\n        address doctor;\r\n        address patient;\r\n        uint256 date;\r\n        address medicalCenter;\r\n        string[] tags;\r\n        string attachment;\r\n    }\r\n\r\n    event PatientRecordPublished(uint256 id, address patient);\r\n\r\n    event PatientRegistered(address patient);\r\n\r\n    mapping(address => UserRole) private userRoles;\r\n\r\n    mapping(address => uint256) private recordsForPatients;\r\n    /*\r\n     *@notice it maps the patient address to a nested mapping of unit => PatientRecord\r\n     */\r\n    mapping(address => mapping(uint256 => PatientRecord))\r\n        private patientRecords;\r\n\r\n    address[] private registeredPatients;\r\n    mapping(address => PatientInfo) private patientsInfo;\r\n\r\n    /*\r\n     *@dev only the creator, maybe admin, has access rights\r\n     */\r\n    constructor() {\r\n        userRoles[msg.sender] = UserRole(true, true, false, false);\r\n    }\r\n\r\n    /**\r\n     * --------  modifiers  --------\r\n     */\r\n\r\n    modifier onlyDoctors() {\r\n        require(\r\n            userRoles[msg.sender].isDoctor,\r\n            'You have no sufficient access right to implement this action.'\r\n        );\r\n        _;\r\n    }\r\n\r\n    modifier onlyAdmins() {\r\n        require(\r\n            userRoles[msg.sender].isAdmin,\r\n            'You have no sufficient access right to implement this action.'\r\n        );\r\n        _;\r\n    }\r\n\r\n    modifier onlyViewer(address _patient) {\r\n        bool isAdmin = userRoles[msg.sender].isAdmin;\r\n        bool isDoctor = userRoles[msg.sender].isDoctor;\r\n        bool isPatient = (msg.sender == _patient);\r\n        bool registered = isRegistered();\r\n        require(\r\n            isAdmin || isDoctor || (isPatient && registered),\r\n            'You have no sufficient access right to implement this action.'\r\n        );\r\n        _;\r\n    }\r\n\r\n    modifier payETH(uint256 amount) {\r\n        require(\r\n            msg.value >= amount,\r\n            'amount exceed over the transaction value'\r\n        );\r\n        _;\r\n    }\r\n\r\n    /** \r\n    * ---------  Check the availablility to Write and Access  -----------\r\n    */\r\n\r\n    function canWrite() public view returns (bool) {\r\n        return userRoles[msg.sender].isDoctor;\r\n    }\r\n\r\n    function canGiveAccess() public view returns (bool) {\r\n        return userRoles[msg.sender].isAdmin;\r\n    }\r\n\r\n    /**\r\n    * ----------  Add and Get Records  ----------\r\n    */\r\n\r\n    function addPatientRecord(\r\n        address _patient,\r\n        address _doctor,\r\n        string memory _title,\r\n        string memory _description,\r\n        address _medicalCenter,\r\n        string[] memory _tags,\r\n        string memory _attachment\r\n    ) public onlyDoctors {\r\n        patientRecords[_patient][recordsForPatients[_patient]] = PatientRecord(\r\n            recordsForPatients[_patient],\r\n            _title,\r\n            _description,\r\n            _doctor,\r\n            _patient,\r\n            block.timestamp,\r\n            _medicalCenter,\r\n            _tags,\r\n            _attachment\r\n        );\r\n        emit PatientRecordPublished(recordsForPatients[_patient]++, _patient);\r\n    }\r\n\r\n    function getPatientRecord(address _patient, uint256 _recordId)\r\n        public\r\n        view\r\n        onlyViewer(_patient)\r\n        returns (PatientRecord memory)\r\n    {\r\n        require(\r\n            recordsForPatients[_patient] > _recordId,\r\n            'Invalid patient record ID'\r\n        );\r\n        return patientRecords[_patient][_recordId];\r\n    }\r\n\r\n    function getPatientRecords(address _patient)\r\n        public\r\n        view\r\n        onlyViewer(_patient)\r\n        returns (PatientRecord[] memory)\r\n    {\r\n        uint256 recordsCountForUser = recordsForPatients[_patient];\r\n        PatientRecord[] memory result = new PatientRecord[](\r\n            recordsCountForUser\r\n        );\r\n        for (uint256 i = 0; i < recordsCountForUser; i++) {\r\n            result[i] = patientRecords[_patient][i];\r\n        }\r\n        return result;\r\n    }\r\n\r\n    function getPatientsInfo()\r\n        public\r\n        view\r\n        onlyDoctors\r\n        returns (PatientInfo[] memory)\r\n    {\r\n        uint256 registeredPatientsCount = registeredPatients.length;\r\n        PatientInfo[] memory result = new PatientInfo[](\r\n            registeredPatientsCount\r\n        );\r\n        for (uint256 i = 0; i < registeredPatientsCount; i++) {\r\n            address currentPatient = registeredPatients[i];\r\n            result[i] = patientsInfo[currentPatient];\r\n        }\r\n        return result;\r\n    }\r\n\r\n    /** \r\n    * ---------  Register as Patient  -----------\r\n    */\r\n\r\n    function isRegistered() public view returns (bool) {\r\n        return patientsInfo[msg.sender].registered;\r\n    }\r\n\r\n    function registerAsPatient(\r\n        string memory _name,\r\n        string memory _nationalId,\r\n        string memory _gender\r\n    ) public {\r\n        require(!isRegistered(), 'Patient is already registered');\r\n        patientsInfo[msg.sender] = PatientInfo(\r\n            _name,\r\n            _nationalId,\r\n            _gender,\r\n            msg.sender,\r\n            true\r\n        );\r\n        registeredPatients.push(msg.sender);\r\n        emit PatientRegistered(msg.sender);\r\n    }\r\n\r\n    /**\r\n     * ----------  grant Access to the others  --------------\r\n     */\r\n    function grantAdminAccess(address payable _user)\r\n        public\r\n        payable\r\n        onlyAdmins\r\n        payETH(0.1 ether)\r\n    {\r\n        userRoles[_user].isAdmin = true;\r\n        userRoles[_user].isDoctor = true;\r\n        _user.transfer(10 ether);\r\n    }\r\n\r\n    function grantWriteAccess(address payable _user)\r\n        public\r\n        payable\r\n        onlyAdmins\r\n        payETH(3 ether)\r\n    {\r\n        userRoles[_user].isDoctor = true;\r\n        _user.transfer(0.03 ether);\r\n    }\r\n}\r\n",
  "sourcePath": "E:\\work\\HealthCareSystem\\contracts\\HealthCare.sol",
  "compiler": {
    "name": "solc",
    "version": "0.8.4+commit.c7e474f2.Emscripten.clang"
  },
  "schemaVersion": "3.4.3",
  "updatedAt": "2022-01-19T19:45:21.573Z",
  "networkType": "ethereum",
  "devdoc": {
    "kind": "dev",
    "methods": {},
    "version": 1
  },
  "userdoc": {
    "kind": "user",
    "methods": {
      "addPatientRecord(address,address,string,string,address,string[],string)": {
        "notice": "----------  Add and Get Records  ----------"
      },
      "canWrite()": {
        "notice": "---------  Check the availablility to Write and Access  -----------"
      },
      "grantAdminAccess(address)": {
        "notice": "----------  grant Access to the others  --------------"
      },
      "isRegistered()": {
        "notice": "---------  Register as Patient  -----------"
      }
    },
    "version": 1
  }
}