{
  "contractName": "HealthCare",
  "abi": [
    {
      "inputs": [],
      "stateMutability": "nonpayable",
      "type": "constructor"
    },
    {
      "anonymous": false,
      "inputs": [
        {
          "indexed": false,
          "internalType": "address",
          "name": "doctor",
          "type": "address"
        }
      ],
      "name": "DoctorRegistered",
      "type": "event"
    },
    {
      "anonymous": false,
      "inputs": [
        {
          "indexed": false,
          "internalType": "uint256",
          "name": "id",
          "type": "uint256"
        },
        {
          "indexed": false,
          "internalType": "address",
          "name": "patient",
          "type": "address"
        }
      ],
      "name": "PatientRecordPublished",
      "type": "event"
    },
    {
      "anonymous": false,
      "inputs": [
        {
          "indexed": false,
          "internalType": "address",
          "name": "patient",
          "type": "address"
        }
      ],
      "name": "PatientRegistered",
      "type": "event"
    },
    {
      "inputs": [],
      "name": "canWrite",
      "outputs": [
        {
          "internalType": "bool",
          "name": "",
          "type": "bool"
        }
      ],
      "stateMutability": "view",
      "type": "function",
      "constant": true
    },
    {
      "inputs": [],
      "name": "canGiveAccess",
      "outputs": [
        {
          "internalType": "bool",
          "name": "",
          "type": "bool"
        }
      ],
      "stateMutability": "view",
      "type": "function",
      "constant": true
    },
    {
      "inputs": [
        {
          "internalType": "address",
          "name": "_patient",
          "type": "address"
        },
        {
          "internalType": "address",
          "name": "_doctor",
          "type": "address"
        },
        {
          "internalType": "string",
          "name": "_title",
          "type": "string"
        },
        {
          "internalType": "string",
          "name": "_description",
          "type": "string"
        },
        {
          "internalType": "address",
          "name": "_medicalCenter",
          "type": "address"
        },
        {
          "internalType": "string[]",
          "name": "_tags",
          "type": "string[]"
        },
        {
          "internalType": "string",
          "name": "_attachment",
          "type": "string"
        }
      ],
      "name": "addPatientRecord",
      "outputs": [],
      "stateMutability": "nonpayable",
      "type": "function"
    },
    {
      "inputs": [
        {
          "internalType": "address",
          "name": "_patient",
          "type": "address"
        },
        {
          "internalType": "uint256",
          "name": "_recordId",
          "type": "uint256"
        }
      ],
      "name": "getPatientRecord",
      "outputs": [
        {
          "components": [
            {
              "internalType": "uint256",
              "name": "id",
              "type": "uint256"
            },
            {
              "internalType": "string",
              "name": "title",
              "type": "string"
            },
            {
              "internalType": "string",
              "name": "description",
              "type": "string"
            },
            {
              "internalType": "address",
              "name": "doctor",
              "type": "address"
            },
            {
              "internalType": "address",
              "name": "patient",
              "type": "address"
            },
            {
              "internalType": "uint256",
              "name": "date",
              "type": "uint256"
            },
            {
              "internalType": "address",
              "name": "medicalCenter",
              "type": "address"
            },
            {
              "internalType": "string[]",
              "name": "tags",
              "type": "string[]"
            },
            {
              "internalType": "string",
              "name": "attachment",
              "type": "string"
            }
          ],
          "internalType": "struct HealthCare.PatientRecord",
          "name": "",
          "type": "tuple"
        }
      ],
      "stateMutability": "view",
      "type": "function",
      "constant": true
    },
    {
      "inputs": [
        {
          "internalType": "address",
          "name": "_patient",
          "type": "address"
        }
      ],
      "name": "getPatientRecords",
      "outputs": [
        {
          "components": [
            {
              "internalType": "uint256",
              "name": "id",
              "type": "uint256"
            },
            {
              "internalType": "string",
              "name": "title",
              "type": "string"
            },
            {
              "internalType": "string",
              "name": "description",
              "type": "string"
            },
            {
              "internalType": "address",
              "name": "doctor",
              "type": "address"
            },
            {
              "internalType": "address",
              "name": "patient",
              "type": "address"
            },
            {
              "internalType": "uint256",
              "name": "date",
              "type": "uint256"
            },
            {
              "internalType": "address",
              "name": "medicalCenter",
              "type": "address"
            },
            {
              "internalType": "string[]",
              "name": "tags",
              "type": "string[]"
            },
            {
              "internalType": "string",
              "name": "attachment",
              "type": "string"
            }
          ],
          "internalType": "struct HealthCare.PatientRecord[]",
          "name": "",
          "type": "tuple[]"
        }
      ],
      "stateMutability": "view",
      "type": "function",
      "constant": true
    },
    {
      "inputs": [],
      "name": "getPatientsInfo",
      "outputs": [
        {
          "components": [
            {
              "internalType": "string",
              "name": "name",
              "type": "string"
            },
            {
              "internalType": "string",
              "name": "nationalId",
              "type": "string"
            },
            {
              "internalType": "string",
              "name": "gender",
              "type": "string"
            },
            {
              "internalType": "address",
              "name": "id",
              "type": "address"
            },
            {
              "internalType": "bool",
              "name": "registered",
              "type": "bool"
            }
          ],
          "internalType": "struct HealthCare.PatientInfo[]",
          "name": "",
          "type": "tuple[]"
        }
      ],
      "stateMutability": "view",
      "type": "function",
      "constant": true
    },
    {
      "inputs": [],
      "name": "getDoctorsInfo",
      "outputs": [
        {
          "components": [
            {
              "internalType": "string",
              "name": "name",
              "type": "string"
            },
            {
              "internalType": "string",
              "name": "nationalId",
              "type": "string"
            },
            {
              "internalType": "string",
              "name": "gender",
              "type": "string"
            },
            {
              "internalType": "string",
              "name": "specialty",
              "type": "string"
            },
            {
              "internalType": "uint256",
              "name": "yearsOfExperience",
              "type": "uint256"
            },
            {
              "internalType": "address",
              "name": "id",
              "type": "address"
            },
            {
              "internalType": "bool",
              "name": "registered",
              "type": "bool"
            }
          ],
          "internalType": "struct HealthCare.DoctorInfo[]",
          "name": "",
          "type": "tuple[]"
        }
      ],
      "stateMutability": "view",
      "type": "function",
      "constant": true
    },
    {
      "inputs": [],
      "name": "isRegisteredAsPatient",
      "outputs": [
        {
          "internalType": "bool",
          "name": "",
          "type": "bool"
        }
      ],
      "stateMutability": "view",
      "type": "function",
      "constant": true
    },
    {
      "inputs": [
        {
          "internalType": "string",
          "name": "_name",
          "type": "string"
        },
        {
          "internalType": "string",
          "name": "_nationalId",
          "type": "string"
        },
        {
          "internalType": "string",
          "name": "_gender",
          "type": "string"
        }
      ],
      "name": "registerAsPatient",
      "outputs": [],
      "stateMutability": "nonpayable",
      "type": "function"
    },
    {
      "inputs": [],
      "name": "isRegisteredAsDoctor",
      "outputs": [
        {
          "internalType": "bool",
          "name": "",
          "type": "bool"
        }
      ],
      "stateMutability": "view",
      "type": "function",
      "constant": true
    },
    {
      "inputs": [
        {
          "internalType": "address",
          "name": "_doctor",
          "type": "address"
        },
        {
          "internalType": "string",
          "name": "_name",
          "type": "string"
        },
        {
          "internalType": "string",
          "name": "_nationalId",
          "type": "string"
        },
        {
          "internalType": "string",
          "name": "_gender",
          "type": "string"
        },
        {
          "internalType": "string",
          "name": "_specialty",
          "type": "string"
        },
        {
          "internalType": "uint256",
          "name": "_yearsOfExperience",
          "type": "uint256"
        }
      ],
      "name": "registerAsDoctor",
      "outputs": [],
      "stateMutability": "nonpayable",
      "type": "function"
    },
    {
      "inputs": [
        {
          "internalType": "address",
          "name": "_doctor",
          "type": "address"
        }
      ],
      "name": "getDoctorRecord",
      "outputs": [
        {
          "components": [
            {
              "internalType": "string",
              "name": "name",
              "type": "string"
            },
            {
              "internalType": "string",
              "name": "nationalId",
              "type": "string"
            },
            {
              "internalType": "string",
              "name": "gender",
              "type": "string"
            },
            {
              "internalType": "string",
              "name": "specialty",
              "type": "string"
            },
            {
              "internalType": "uint256",
              "name": "yearsOfExperience",
              "type": "uint256"
            }
          ],
          "internalType": "struct HealthCare.DoctorRecord",
          "name": "",
          "type": "tuple"
        }
      ],
      "stateMutability": "view",
      "type": "function",
      "constant": true
    },
    {
      "inputs": [
        {
          "internalType": "address",
          "name": "_doctor",
          "type": "address"
        }
      ],
      "name": "getDoctorRecords",
      "outputs": [
        {
          "components": [
            {
              "internalType": "string",
              "name": "name",
              "type": "string"
            },
            {
              "internalType": "string",
              "name": "nationalId",
              "type": "string"
            },
            {
              "internalType": "string",
              "name": "gender",
              "type": "string"
            },
            {
              "internalType": "string",
              "name": "specialty",
              "type": "string"
            },
            {
              "internalType": "uint256",
              "name": "yearsOfExperience",
              "type": "uint256"
            }
          ],
          "internalType": "struct HealthCare.DoctorRecord[]",
          "name": "",
          "type": "tuple[]"
        }
      ],
      "stateMutability": "view",
      "type": "function",
      "constant": true
    },
    {
      "inputs": [
        {
          "internalType": "address payable",
          "name": "_user",
          "type": "address"
        }
      ],
      "name": "grantAdminAccess",
      "outputs": [],
      "stateMutability": "payable",
      "type": "function",
      "payable": true
    },
    {
      "inputs": [
        {
          "internalType": "address payable",
          "name": "_user",
          "type": "address"
        }
      ],
      "name": "grantWriteAccess",
      "outputs": [],
      "stateMutability": "payable",
      "type": "function",
      "payable": true
    }
  ],
  "bytecode": "0x608060405234801561001057600080fd5b506040518060a00160405280600115158152602001600115158152602001600115158152602001600015158152602001600015158152506000803373ffffffffffffffffffffffffffffffffffffffff1673ffffffffffffffffffffffffffffffffffffffff16815260200190815260200160002060008201518160000160006101000a81548160ff02191690831515021790555060208201518160000160016101000a81548160ff02191690831515021790555060408201518160000160026101000a81548160ff02191690831515021790555060608201518160000160036101000a81548160ff02191690831515021790555060808201518160000160046101000a81548160ff021916908315150217905550905050614594806101376000396000f3fe6080604052600436106100e85760003560e01c806377bd18501161008a578063c08fb2ef11610059578063c08fb2ef146102e9578063c4c75ae714610314578063e5a5e6fe1461033d578063f7dbcb5314610359576100e8565b806377bd18501461022d5780637da45db614610258578063ad4e5bda14610281578063b69bca5a146102ac576100e8565b8063284bba8f116100c6578063284bba8f1461016f5780634050cee51461019a57806353f3b40a146101c55780636d93fa19146101f0576100e8565b80631822faa3146100ed57806318bd48471461011657806322b3127a14610153575b600080fd5b3480156100f957600080fd5b50610114600480360381019061010f91906134e0565b610396565b005b34801561012257600080fd5b5061013d6004803603810190610138919061326b565b6105bd565b60405161014a9190613e4f565b60405180910390f35b61016d60048036038101906101689190613294565b610c8f565b005b34801561017b57600080fd5b50610184610e70565b6040516101919190613e71565b60405180910390f35b3480156101a657600080fd5b506101af610ec7565b6040516101bc9190613e71565b60405180910390f35b3480156101d157600080fd5b506101da610f1d565b6040516101e79190613e71565b60405180910390f35b3480156101fc57600080fd5b50610217600480360381019061021291906134a4565b610fc9565b6040516102249190613fae565b60405180910390f35b34801561023957600080fd5b506102426115fb565b60405161024f9190613e2d565b60405180910390f35b34801561026457600080fd5b5061027f600480360381019061027a91906132bd565b6119cb565b005b34801561028d57600080fd5b50610296611d9f565b6040516102a39190613de9565b60405180910390f35b3480156102b857600080fd5b506102d360048036038101906102ce919061326b565b61220b565b6040516102e09190613f8c565b60405180910390f35b3480156102f557600080fd5b506102fe6124b6565b60405161030b9190613e71565b60405180910390f35b34801561032057600080fd5b5061033b600480360381019061033691906133bb565b61250d565b005b61035760048036038101906103529190613294565b612902565b005b34801561036557600080fd5b50610380600480360381019061037b919061326b565b612a87565b60405161038d9190613e0b565b60405180910390f35b61039e6124b6565b156103de576040517f08c379a00000000000000000000000000000000000000000000000000000000081526004016103d590613f6c565b60405180910390fd5b6040518060a001604052808481526020018381526020018281526020013373ffffffffffffffffffffffffffffffffffffffff16815260200160011515815250600760003373ffffffffffffffffffffffffffffffffffffffff1673ffffffffffffffffffffffffffffffffffffffff1681526020019081526020016000206000820151816000019080519060200190610479929190612e54565b506020820151816001019080519060200190610496929190612e54565b5060408201518160020190805190602001906104b3929190612e54565b5060608201518160030160006101000a81548173ffffffffffffffffffffffffffffffffffffffff021916908373ffffffffffffffffffffffffffffffffffffffff16021790555060808201518160030160146101000a81548160ff0219169083151502179055509050506005339080600181540180825580915050600190039060005260206000200160009091909190916101000a81548173ffffffffffffffffffffffffffffffffffffffff021916908373ffffffffffffffffffffffffffffffffffffffff1602179055507fc9fa2003fca4ce0dfc8cb0deae32266b715536df6685365b05b5be96ede8e49c336040516105b09190613dce565b60405180910390a1505050565b60608160008060003373ffffffffffffffffffffffffffffffffffffffff1673ffffffffffffffffffffffffffffffffffffffff16815260200190815260200160002060000160009054906101000a900460ff16905060008060003373ffffffffffffffffffffffffffffffffffffffff1673ffffffffffffffffffffffffffffffffffffffff16815260200190815260200160002060000160019054906101000a900460ff16905060008060003373ffffffffffffffffffffffffffffffffffffffff1673ffffffffffffffffffffffffffffffffffffffff16815260200190815260200160002060000160029054906101000a900460ff16905060008473ffffffffffffffffffffffffffffffffffffffff163373ffffffffffffffffffffffffffffffffffffffff1614905060006106f66124b6565b905084806107015750835b806107095750825b8061071a57508180156107195750805b5b610759576040517f08c379a000000000000000000000000000000000000000000000000000000000815260040161075090613f2c565b60405180910390fd5b6000600160008a73ffffffffffffffffffffffffffffffffffffffff1673ffffffffffffffffffffffffffffffffffffffff16815260200190815260200160002054905060008167ffffffffffffffff8111156107df577f4e487b7100000000000000000000000000000000000000000000000000000000600052604160045260246000fd5b60405190808252806020026020018201604052801561081857816020015b610805612eda565b8152602001906001900390816107fd5790505b50905060005b82811015610c7e57600360008c73ffffffffffffffffffffffffffffffffffffffff1673ffffffffffffffffffffffffffffffffffffffff1681526020019081526020016000206000828152602001908152602001600020604051806101200160405290816000820154815260200160018201805461089c90614261565b80601f01602080910402602001604051908101604052809291908181526020018280546108c890614261565b80156109155780601f106108ea57610100808354040283529160200191610915565b820191906000526020600020905b8154815290600101906020018083116108f857829003601f168201915b5050505050815260200160028201805461092e90614261565b80601f016020809104026020016040519081016040528092919081815260200182805461095a90614261565b80156109a75780601f1061097c576101008083540402835291602001916109a7565b820191906000526020600020905b81548152906001019060200180831161098a57829003601f168201915b505050505081526020016003820160009054906101000a900473ffffffffffffffffffffffffffffffffffffffff1673ffffffffffffffffffffffffffffffffffffffff1673ffffffffffffffffffffffffffffffffffffffff1681526020016004820160009054906101000a900473ffffffffffffffffffffffffffffffffffffffff1673ffffffffffffffffffffffffffffffffffffffff1673ffffffffffffffffffffffffffffffffffffffff168152602001600582015481526020016006820160009054906101000a900473ffffffffffffffffffffffffffffffffffffffff1673ffffffffffffffffffffffffffffffffffffffff1673ffffffffffffffffffffffffffffffffffffffff16815260200160078201805480602002602001604051908101604052809291908181526020016000905b82821015610b8d578382906000526020600020018054610b0090614261565b80601f0160208091040260200160405190810160405280929190818152602001828054610b2c90614261565b8015610b795780601f10610b4e57610100808354040283529160200191610b79565b820191906000526020600020905b815481529060010190602001808311610b5c57829003601f168201915b505050505081526020019060010190610ae1565b505050508152602001600882018054610ba590614261565b80601f0160208091040260200160405190810160405280929190818152602001828054610bd190614261565b8015610c1e5780601f10610bf357610100808354040283529160200191610c1e565b820191906000526020600020905b815481529060010190602001808311610c0157829003601f168201915b505050505081525050828281518110610c60577f4e487b7100000000000000000000000000000000000000000000000000000000600052603260045260246000fd5b60200260200101819052508080610c76906142c4565b91505061081e565b508098505050505050505050919050565b6000803373ffffffffffffffffffffffffffffffffffffffff1673ffffffffffffffffffffffffffffffffffffffff16815260200190815260200160002060000160009054906101000a900460ff16610d1d576040517f08c379a0000000000000000000000000000000000000000000000000000000008152600401610d1490613f0c565b60405180910390fd5b67016345785d8a000080341015610d69576040517f08c379a0000000000000000000000000000000000000000000000000000000008152600401610d6090613eec565b60405180910390fd5b60016000808473ffffffffffffffffffffffffffffffffffffffff1673ffffffffffffffffffffffffffffffffffffffff16815260200190815260200160002060000160006101000a81548160ff02191690831515021790555060016000808473ffffffffffffffffffffffffffffffffffffffff1673ffffffffffffffffffffffffffffffffffffffff16815260200190815260200160002060000160016101000a81548160ff0219169083151502179055508173ffffffffffffffffffffffffffffffffffffffff166108fc67016345785d8a00009081150290604051600060405180830381858888f19350505050158015610e6b573d6000803e3d6000fd5b505050565b6000600860003373ffffffffffffffffffffffffffffffffffffffff1673ffffffffffffffffffffffffffffffffffffffff16815260200190815260200160002060050160149054906101000a900460ff16905090565b60008060003373ffffffffffffffffffffffffffffffffffffffff1673ffffffffffffffffffffffffffffffffffffffff16815260200190815260200160002060000160009054906101000a900460ff16905090565b60008060003373ffffffffffffffffffffffffffffffffffffffff1673ffffffffffffffffffffffffffffffffffffffff16815260200190815260200160002060000160029054906101000a900460ff1680610fc457506000803373ffffffffffffffffffffffffffffffffffffffff1673ffffffffffffffffffffffffffffffffffffffff16815260200190815260200160002060000160019054906101000a900460ff165b905090565b610fd1612eda565b8260008060003373ffffffffffffffffffffffffffffffffffffffff1673ffffffffffffffffffffffffffffffffffffffff16815260200190815260200160002060000160009054906101000a900460ff16905060008060003373ffffffffffffffffffffffffffffffffffffffff1673ffffffffffffffffffffffffffffffffffffffff16815260200190815260200160002060000160019054906101000a900460ff16905060008060003373ffffffffffffffffffffffffffffffffffffffff1673ffffffffffffffffffffffffffffffffffffffff16815260200190815260200160002060000160029054906101000a900460ff16905060008473ffffffffffffffffffffffffffffffffffffffff163373ffffffffffffffffffffffffffffffffffffffff1614905060006111086124b6565b905084806111135750835b8061111b5750825b8061112c575081801561112b5750805b5b61116b576040517f08c379a000000000000000000000000000000000000000000000000000000000815260040161116290613f2c565b60405180910390fd5b87600160008b73ffffffffffffffffffffffffffffffffffffffff1673ffffffffffffffffffffffffffffffffffffffff16815260200190815260200160002054116111ec576040517f08c379a00000000000000000000000000000000000000000000000000000000081526004016111e390613ecc565b60405180910390fd5b600360008a73ffffffffffffffffffffffffffffffffffffffff1673ffffffffffffffffffffffffffffffffffffffff1681526020019081526020016000206000898152602001908152602001600020604051806101200160405290816000820154815260200160018201805461126290614261565b80601f016020809104026020016040519081016040528092919081815260200182805461128e90614261565b80156112db5780601f106112b0576101008083540402835291602001916112db565b820191906000526020600020905b8154815290600101906020018083116112be57829003601f168201915b505050505081526020016002820180546112f490614261565b80601f016020809104026020016040519081016040528092919081815260200182805461132090614261565b801561136d5780601f106113425761010080835404028352916020019161136d565b820191906000526020600020905b81548152906001019060200180831161135057829003601f168201915b505050505081526020016003820160009054906101000a900473ffffffffffffffffffffffffffffffffffffffff1673ffffffffffffffffffffffffffffffffffffffff1673ffffffffffffffffffffffffffffffffffffffff1681526020016004820160009054906101000a900473ffffffffffffffffffffffffffffffffffffffff1673ffffffffffffffffffffffffffffffffffffffff1673ffffffffffffffffffffffffffffffffffffffff168152602001600582015481526020016006820160009054906101000a900473ffffffffffffffffffffffffffffffffffffffff1673ffffffffffffffffffffffffffffffffffffffff1673ffffffffffffffffffffffffffffffffffffffff16815260200160078201805480602002602001604051908101604052809291908181526020016000905b828210156115535783829060005260206000200180546114c690614261565b80601f01602080910402602001604051908101604052809291908181526020018280546114f290614261565b801561153f5780601f106115145761010080835404028352916020019161153f565b820191906000526020600020905b81548152906001019060200180831161152257829003601f168201915b5050505050815260200190600101906114a7565b50505050815260200160088201805461156b90614261565b80601f016020809104026020016040519081016040528092919081815260200182805461159790614261565b80156115e45780601f106115b9576101008083540402835291602001916115e4565b820191906000526020600020905b8154815290600101906020018083116115c757829003601f168201915b505050505081525050965050505050505092915050565b60606000600580549050905060008167ffffffffffffffff811115611649577f4e487b7100000000000000000000000000000000000000000000000000000000600052604160045260246000fd5b60405190808252806020026020018201604052801561168257816020015b61166f612f68565b8152602001906001900390816116675790505b50905060005b828110156119c2576000600582815481106116cc577f4e487b7100000000000000000000000000000000000000000000000000000000600052603260045260246000fd5b9060005260206000200160009054906101000a900473ffffffffffffffffffffffffffffffffffffffff169050600760008273ffffffffffffffffffffffffffffffffffffffff1673ffffffffffffffffffffffffffffffffffffffff1681526020019081526020016000206040518060a001604052908160008201805461175390614261565b80601f016020809104026020016040519081016040528092919081815260200182805461177f90614261565b80156117cc5780601f106117a1576101008083540402835291602001916117cc565b820191906000526020600020905b8154815290600101906020018083116117af57829003601f168201915b505050505081526020016001820180546117e590614261565b80601f016020809104026020016040519081016040528092919081815260200182805461181190614261565b801561185e5780601f106118335761010080835404028352916020019161185e565b820191906000526020600020905b81548152906001019060200180831161184157829003601f168201915b5050505050815260200160028201805461187790614261565b80601f01602080910402602001604051908101604052809291908181526020018280546118a390614261565b80156118f05780601f106118c5576101008083540402835291602001916118f0565b820191906000526020600020905b8154815290600101906020018083116118d357829003601f168201915b505050505081526020016003820160009054906101000a900473ffffffffffffffffffffffffffffffffffffffff1673ffffffffffffffffffffffffffffffffffffffff1673ffffffffffffffffffffffffffffffffffffffff1681526020016003820160149054906101000a900460ff1615151515815250508383815181106119a3577f4e487b7100000000000000000000000000000000000000000000000000000000600052603260045260246000fd5b60200260200101819052505080806119ba906142c4565b915050611688565b50809250505090565b6000803373ffffffffffffffffffffffffffffffffffffffff1673ffffffffffffffffffffffffffffffffffffffff16815260200190815260200160002060000160019054906101000a900460ff16611a59576040517f08c379a0000000000000000000000000000000000000000000000000000000008152600401611a5090613e8c565b60405180910390fd5b604051806101200160405280600160008a73ffffffffffffffffffffffffffffffffffffffff1673ffffffffffffffffffffffffffffffffffffffff1681526020019081526020016000205481526020018681526020018581526020018773ffffffffffffffffffffffffffffffffffffffff1681526020018873ffffffffffffffffffffffffffffffffffffffff1681526020014281526020018473ffffffffffffffffffffffffffffffffffffffff16815260200183815260200182815250600360008973ffffffffffffffffffffffffffffffffffffffff1673ffffffffffffffffffffffffffffffffffffffff1681526020019081526020016000206000600160008b73ffffffffffffffffffffffffffffffffffffffff1673ffffffffffffffffffffffffffffffffffffffff168152602001908152602001600020548152602001908152602001600020600082015181600001556020820151816001019080519060200190611bcf929190612e54565b506040820151816002019080519060200190611bec929190612e54565b5060608201518160030160006101000a81548173ffffffffffffffffffffffffffffffffffffffff021916908373ffffffffffffffffffffffffffffffffffffffff16021790555060808201518160040160006101000a81548173ffffffffffffffffffffffffffffffffffffffff021916908373ffffffffffffffffffffffffffffffffffffffff16021790555060a0820151816005015560c08201518160060160006101000a81548173ffffffffffffffffffffffffffffffffffffffff021916908373ffffffffffffffffffffffffffffffffffffffff16021790555060e0820151816007019080519060200190611ce8929190612faf565b50610100820151816008019080519060200190611d06929190612e54565b509050507f48a00f0dc2363c1ebf6b5bbf69a05f9a93019007d3a9071307bc6932463eb216600160008973ffffffffffffffffffffffffffffffffffffffff1673ffffffffffffffffffffffffffffffffffffffff1681526020019081526020016000206000815480929190611d7b906142c4565b9190505588604051611d8e929190613fd0565b60405180910390a150505050505050565b60606000600680549050905060008167ffffffffffffffff811115611ded577f4e487b7100000000000000000000000000000000000000000000000000000000600052604160045260246000fd5b604051908082528060200260200182016040528015611e2657816020015b611e1361300f565b815260200190600190039081611e0b5790505b50905060005b8281101561220257600060068281548110611e70577f4e487b7100000000000000000000000000000000000000000000000000000000600052603260045260246000fd5b9060005260206000200160009054906101000a900473ffffffffffffffffffffffffffffffffffffffff169050600860008273ffffffffffffffffffffffffffffffffffffffff1673ffffffffffffffffffffffffffffffffffffffff1681526020019081526020016000206040518060e0016040529081600082018054611ef790614261565b80601f0160208091040260200160405190810160405280929190818152602001828054611f2390614261565b8015611f705780601f10611f4557610100808354040283529160200191611f70565b820191906000526020600020905b815481529060010190602001808311611f5357829003601f168201915b50505050508152602001600182018054611f8990614261565b80601f0160208091040260200160405190810160405280929190818152602001828054611fb590614261565b80156120025780601f10611fd757610100808354040283529160200191612002565b820191906000526020600020905b815481529060010190602001808311611fe557829003601f168201915b5050505050815260200160028201805461201b90614261565b80601f016020809104026020016040519081016040528092919081815260200182805461204790614261565b80156120945780601f1061206957610100808354040283529160200191612094565b820191906000526020600020905b81548152906001019060200180831161207757829003601f168201915b505050505081526020016003820180546120ad90614261565b80601f01602080910402602001604051908101604052809291908181526020018280546120d990614261565b80156121265780601f106120fb57610100808354040283529160200191612126565b820191906000526020600020905b81548152906001019060200180831161210957829003601f168201915b50505050508152602001600482015481526020016005820160009054906101000a900473ffffffffffffffffffffffffffffffffffffffff1673ffffffffffffffffffffffffffffffffffffffff1673ffffffffffffffffffffffffffffffffffffffff1681526020016005820160149054906101000a900460ff1615151515815250508383815181106121e3577f4e487b7100000000000000000000000000000000000000000000000000000000600052603260045260246000fd5b60200260200101819052505080806121fa906142c4565b915050611e2c565b50809250505090565b612213613064565b600460008373ffffffffffffffffffffffffffffffffffffffff1673ffffffffffffffffffffffffffffffffffffffff1681526020019081526020016000206040518060a001604052908160008201805461226d90614261565b80601f016020809104026020016040519081016040528092919081815260200182805461229990614261565b80156122e65780601f106122bb576101008083540402835291602001916122e6565b820191906000526020600020905b8154815290600101906020018083116122c957829003601f168201915b505050505081526020016001820180546122ff90614261565b80601f016020809104026020016040519081016040528092919081815260200182805461232b90614261565b80156123785780601f1061234d57610100808354040283529160200191612378565b820191906000526020600020905b81548152906001019060200180831161235b57829003601f168201915b5050505050815260200160028201805461239190614261565b80601f01602080910402602001604051908101604052809291908181526020018280546123bd90614261565b801561240a5780601f106123df5761010080835404028352916020019161240a565b820191906000526020600020905b8154815290600101906020018083116123ed57829003601f168201915b5050505050815260200160038201805461242390614261565b80601f016020809104026020016040519081016040528092919081815260200182805461244f90614261565b801561249c5780601f106124715761010080835404028352916020019161249c565b820191906000526020600020905b81548152906001019060200180831161247f57829003601f168201915b505050505081526020016004820154815250509050919050565b6000600760003373ffffffffffffffffffffffffffffffffffffffff1673ffffffffffffffffffffffffffffffffffffffff16815260200190815260200160002060030160149054906101000a900460ff16905090565b6000803373ffffffffffffffffffffffffffffffffffffffff1673ffffffffffffffffffffffffffffffffffffffff16815260200190815260200160002060000160029054906101000a900460ff1661259b576040517f08c379a000000000000000000000000000000000000000000000000000000000815260040161259290613f4c565b60405180910390fd5b6125a3610e70565b156125e3576040517f08c379a00000000000000000000000000000000000000000000000000000000081526004016125da90613eac565b60405180910390fd5b6040518060e001604052808681526020018581526020018481526020018381526020018281526020013373ffffffffffffffffffffffffffffffffffffffff16815260200160011515815250600860003373ffffffffffffffffffffffffffffffffffffffff1673ffffffffffffffffffffffffffffffffffffffff168152602001908152602001600020600082015181600001908051906020019061268a929190612e54565b5060208201518160010190805190602001906126a7929190612e54565b5060408201518160020190805190602001906126c4929190612e54565b5060608201518160030190805190602001906126e1929190612e54565b506080820151816004015560a08201518160050160006101000a81548173ffffffffffffffffffffffffffffffffffffffff021916908373ffffffffffffffffffffffffffffffffffffffff16021790555060c08201518160050160146101000a81548160ff0219169083151502179055509050506040518060a0016040528086815260200185815260200184815260200183815260200182815250600460008873ffffffffffffffffffffffffffffffffffffffff1673ffffffffffffffffffffffffffffffffffffffff16815260200190815260200160002060008201518160000190805190602001906127d8929190612e54565b5060208201518160010190805190602001906127f5929190612e54565b506040820151816002019080519060200190612812929190612e54565b50606082015181600301908051906020019061282f929190612e54565b50608082015181600401559050506006339080600181540180825580915050600190039060005260206000200160009091909190916101000a81548173ffffffffffffffffffffffffffffffffffffffff021916908373ffffffffffffffffffffffffffffffffffffffff16021790555060016000808873ffffffffffffffffffffffffffffffffffffffff1673ffffffffffffffffffffffffffffffffffffffff16815260200190815260200160002060000160016101000a81548160ff021916908315150217905550505050505050565b6000803373ffffffffffffffffffffffffffffffffffffffff1673ffffffffffffffffffffffffffffffffffffffff16815260200190815260200160002060000160009054906101000a900460ff16612990576040517f08c379a000000000000000000000000000000000000000000000000000000000815260040161298790613f0c565b60405180910390fd5b666a94d74f430000803410156129db576040517f08c379a00000000000000000000000000000000000000000000000000000000081526004016129d290613eec565b60405180910390fd5b60016000808473ffffffffffffffffffffffffffffffffffffffff1673ffffffffffffffffffffffffffffffffffffffff16815260200190815260200160002060000160026101000a81548160ff0219169083151502179055508173ffffffffffffffffffffffffffffffffffffffff166108fc666a94d74f4300009081150290604051600060405180830381858888f19350505050158015612a82573d6000803e3d6000fd5b505050565b60606000600260008473ffffffffffffffffffffffffffffffffffffffff1673ffffffffffffffffffffffffffffffffffffffff16815260200190815260200160002054905060008167ffffffffffffffff811115612b0f577f4e487b7100000000000000000000000000000000000000000000000000000000600052604160045260246000fd5b604051908082528060200260200182016040528015612b4857816020015b612b35613064565b815260200190600190039081612b2d5790505b50905060005b82811015612e4957600460008673ffffffffffffffffffffffffffffffffffffffff1673ffffffffffffffffffffffffffffffffffffffff1681526020019081526020016000206040518060a0016040529081600082018054612bb090614261565b80601f0160208091040260200160405190810160405280929190818152602001828054612bdc90614261565b8015612c295780601f10612bfe57610100808354040283529160200191612c29565b820191906000526020600020905b815481529060010190602001808311612c0c57829003601f168201915b50505050508152602001600182018054612c4290614261565b80601f0160208091040260200160405190810160405280929190818152602001828054612c6e90614261565b8015612cbb5780601f10612c9057610100808354040283529160200191612cbb565b820191906000526020600020905b815481529060010190602001808311612c9e57829003601f168201915b50505050508152602001600282018054612cd490614261565b80601f0160208091040260200160405190810160405280929190818152602001828054612d0090614261565b8015612d4d5780601f10612d2257610100808354040283529160200191612d4d565b820191906000526020600020905b815481529060010190602001808311612d3057829003601f168201915b50505050508152602001600382018054612d6690614261565b80601f0160208091040260200160405190810160405280929190818152602001828054612d9290614261565b8015612ddf5780601f10612db457610100808354040283529160200191612ddf565b820191906000526020600020905b815481529060010190602001808311612dc257829003601f168201915b50505050508152602001600482015481525050828281518110612e2b577f4e487b7100000000000000000000000000000000000000000000000000000000600052603260045260246000fd5b60200260200101819052508080612e41906142c4565b915050612b4e565b508092505050919050565b828054612e6090614261565b90600052602060002090601f016020900481019282612e825760008555612ec9565b82601f10612e9b57805160ff1916838001178555612ec9565b82800160010185558215612ec9579182015b82811115612ec8578251825591602001919060010190612ead565b5b509050612ed69190613093565b5090565b604051806101200160405280600081526020016060815260200160608152602001600073ffffffffffffffffffffffffffffffffffffffff168152602001600073ffffffffffffffffffffffffffffffffffffffff16815260200160008152602001600073ffffffffffffffffffffffffffffffffffffffff16815260200160608152602001606081525090565b6040518060a00160405280606081526020016060815260200160608152602001600073ffffffffffffffffffffffffffffffffffffffff1681526020016000151581525090565b828054828255906000526020600020908101928215612ffe579160200282015b82811115612ffd578251829080519060200190612fed929190612e54565b5091602001919060010190612fcf565b5b50905061300b91906130b0565b5090565b6040518060e001604052806060815260200160608152602001606081526020016060815260200160008152602001600073ffffffffffffffffffffffffffffffffffffffff1681526020016000151581525090565b6040518060a0016040528060608152602001606081526020016060815260200160608152602001600081525090565b5b808211156130ac576000816000905550600101613094565b5090565b5b808211156130d057600081816130c791906130d4565b506001016130b1565b5090565b5080546130e090614261565b6000825580601f106130f25750613111565b601f0160209004906000526020600020908101906131109190613093565b5b50565b60006131276131228461401e565b613ff9565b9050808382526020820190508285602086028201111561314657600080fd5b60005b8581101561319057813567ffffffffffffffff81111561316857600080fd5b808601613175898261322c565b85526020850194506020840193505050600181019050613149565b5050509392505050565b60006131ad6131a88461404a565b613ff9565b9050828152602081018484840111156131c557600080fd5b6131d084828561421f565b509392505050565b6000813590506131e781614519565b92915050565b6000813590506131fc81614530565b92915050565b600082601f83011261321357600080fd5b8135613223848260208601613114565b91505092915050565b600082601f83011261323d57600080fd5b813561324d84826020860161319a565b91505092915050565b60008135905061326581614547565b92915050565b60006020828403121561327d57600080fd5b600061328b848285016131d8565b91505092915050565b6000602082840312156132a657600080fd5b60006132b4848285016131ed565b91505092915050565b600080600080600080600060e0888a0312156132d857600080fd5b60006132e68a828b016131d8565b97505060206132f78a828b016131d8565b965050604088013567ffffffffffffffff81111561331457600080fd5b6133208a828b0161322c565b955050606088013567ffffffffffffffff81111561333d57600080fd5b6133498a828b0161322c565b945050608061335a8a828b016131d8565b93505060a088013567ffffffffffffffff81111561337757600080fd5b6133838a828b01613202565b92505060c088013567ffffffffffffffff8111156133a057600080fd5b6133ac8a828b0161322c565b91505092959891949750929550565b60008060008060008060c087890312156133d457600080fd5b60006133e289828a016131d8565b965050602087013567ffffffffffffffff8111156133ff57600080fd5b61340b89828a0161322c565b955050604087013567ffffffffffffffff81111561342857600080fd5b61343489828a0161322c565b945050606087013567ffffffffffffffff81111561345157600080fd5b61345d89828a0161322c565b935050608087013567ffffffffffffffff81111561347a57600080fd5b61348689828a0161322c565b92505060a061349789828a01613256565b9150509295509295509295565b600080604083850312156134b757600080fd5b60006134c5858286016131d8565b92505060206134d685828601613256565b9150509250929050565b6000806000606084860312156134f557600080fd5b600084013567ffffffffffffffff81111561350f57600080fd5b61351b8682870161322c565b935050602084013567ffffffffffffffff81111561353857600080fd5b6135448682870161322c565b925050604084013567ffffffffffffffff81111561356157600080fd5b61356d8682870161322c565b9150509250925092565b60006135838383613860565b905092915050565b600061359783836139b1565b905092915050565b60006135ab8383613a62565b905092915050565b60006135bf8383613b78565b905092915050565b60006135d38383613bfc565b905092915050565b6135e4816141c5565b82525050565b6135f3816141c5565b82525050565b6000613604826140cb565b61360e818561414e565b9350836020820285016136208561407b565b8060005b8581101561365c578484038952815161363d8582613577565b94506136488361410d565b925060208a01995050600181019050613624565b50829750879550505050505092915050565b6000613679826140d6565b613683818561415f565b9350836020820285016136958561408b565b8060005b858110156136d157848403895281516136b2858261358b565b94506136bd8361411a565b925060208a01995050600181019050613699565b50829750879550505050505092915050565b60006136ee826140e1565b6136f88185614170565b93508360208202850161370a8561409b565b8060005b858110156137465784840389528151613727858261359f565b945061373283614127565b925060208a0199505060018101905061370e565b50829750879550505050505092915050565b6000613763826140ec565b61376d8185614181565b93508360208202850161377f856140ab565b8060005b858110156137bb578484038952815161379c85826135b3565b94506137a783614134565b925060208a01995050600181019050613783565b50829750879550505050505092915050565b60006137d8826140f7565b6137e28185614192565b9350836020820285016137f4856140bb565b8060005b85811015613830578484038952815161381185826135c7565b945061381c83614141565b925060208a019950506001810190506137f8565b50829750879550505050505092915050565b61384b816141e9565b82525050565b61385a816141e9565b82525050565b600061386b82614102565b61387581856141a3565b935061388581856020860161422e565b61388e8161439a565b840191505092915050565b60006138a6601e836141b4565b91506138b1826143ab565b602082019050919050565b60006138c9601c836141b4565b91506138d4826143d4565b602082019050919050565b60006138ec6019836141b4565b91506138f7826143fd565b602082019050919050565b600061390f6028836141b4565b915061391a82614426565b604082019050919050565b60006139326012836141b4565b915061393d82614475565b602082019050919050565b60006139556013836141b4565b91506139608261449e565b602082019050919050565b60006139786020836141b4565b9150613983826144c7565b602082019050919050565b600061399b601d836141b4565b91506139a6826144f0565b602082019050919050565b600060e08301600083015184820360008601526139ce8282613860565b915050602083015184820360208601526139e88282613860565b91505060408301518482036040860152613a028282613860565b91505060608301518482036060860152613a1c8282613860565b9150506080830151613a316080860182613db0565b5060a0830151613a4460a08601826135db565b5060c0830151613a5760c0860182613842565b508091505092915050565b600060a0830160008301518482036000860152613a7f8282613860565b91505060208301518482036020860152613a998282613860565b91505060408301518482036040860152613ab38282613860565b91505060608301518482036060860152613acd8282613860565b9150506080830151613ae26080860182613db0565b508091505092915050565b600060a0830160008301518482036000860152613b0a8282613860565b91505060208301518482036020860152613b248282613860565b91505060408301518482036040860152613b3e8282613860565b91505060608301518482036060860152613b588282613860565b9150506080830151613b6d6080860182613db0565b508091505092915050565b600060a0830160008301518482036000860152613b958282613860565b91505060208301518482036020860152613baf8282613860565b91505060408301518482036040860152613bc98282613860565b9150506060830151613bde60608601826135db565b506080830151613bf16080860182613842565b508091505092915050565b600061012083016000830151613c156000860182613db0565b5060208301518482036020860152613c2d8282613860565b91505060408301518482036040860152613c478282613860565b9150506060830151613c5c60608601826135db565b506080830151613c6f60808601826135db565b5060a0830151613c8260a0860182613db0565b5060c0830151613c9560c08601826135db565b5060e083015184820360e0860152613cad82826135f9565b915050610100830151848203610100860152613cc98282613860565b9150508091505092915050565b600061012083016000830151613cef6000860182613db0565b5060208301518482036020860152613d078282613860565b91505060408301518482036040860152613d218282613860565b9150506060830151613d3660608601826135db565b506080830151613d4960808601826135db565b5060a0830151613d5c60a0860182613db0565b5060c0830151613d6f60c08601826135db565b5060e083015184820360e0860152613d8782826135f9565b915050610100830151848203610100860152613da38282613860565b9150508091505092915050565b613db981614215565b82525050565b613dc881614215565b82525050565b6000602082019050613de360008301846135ea565b92915050565b60006020820190508181036000830152613e03818461366e565b905092915050565b60006020820190508181036000830152613e2581846136e3565b905092915050565b60006020820190508181036000830152613e478184613758565b905092915050565b60006020820190508181036000830152613e6981846137cd565b905092915050565b6000602082019050613e866000830184613851565b92915050565b60006020820190508181036000830152613ea581613899565b9050919050565b60006020820190508181036000830152613ec5816138bc565b9050919050565b60006020820190508181036000830152613ee5816138df565b9050919050565b60006020820190508181036000830152613f0581613902565b9050919050565b60006020820190508181036000830152613f2581613925565b9050919050565b60006020820190508181036000830152613f4581613948565b9050919050565b60006020820190508181036000830152613f658161396b565b9050919050565b60006020820190508181036000830152613f858161398e565b9050919050565b60006020820190508181036000830152613fa68184613aed565b905092915050565b60006020820190508181036000830152613fc88184613cd6565b905092915050565b6000604082019050613fe56000830185613dbf565b613ff260208301846135ea565b9392505050565b6000614003614014565b905061400f8282614293565b919050565b6000604051905090565b600067ffffffffffffffff8211156140395761403861436b565b5b602082029050602081019050919050565b600067ffffffffffffffff8211156140655761406461436b565b5b61406e8261439a565b9050602081019050919050565b6000819050602082019050919050565b6000819050602082019050919050565b6000819050602082019050919050565b6000819050602082019050919050565b6000819050602082019050919050565b600081519050919050565b600081519050919050565b600081519050919050565b600081519050919050565b600081519050919050565b600081519050919050565b6000602082019050919050565b6000602082019050919050565b6000602082019050919050565b6000602082019050919050565b6000602082019050919050565b600082825260208201905092915050565b600082825260208201905092915050565b600082825260208201905092915050565b600082825260208201905092915050565b600082825260208201905092915050565b600082825260208201905092915050565b600082825260208201905092915050565b60006141d0826141f5565b9050919050565b60006141e2826141f5565b9050919050565b60008115159050919050565b600073ffffffffffffffffffffffffffffffffffffffff82169050919050565b6000819050919050565b82818337600083830152505050565b60005b8381101561424c578082015181840152602081019050614231565b8381111561425b576000848401525b50505050565b6000600282049050600182168061427957607f821691505b6020821081141561428d5761428c61433c565b5b50919050565b61429c8261439a565b810181811067ffffffffffffffff821117156142bb576142ba61436b565b5b80604052505050565b60006142cf82614215565b91507fffffffffffffffffffffffffffffffffffffffffffffffffffffffffffffffff8214156143025761430161430d565b5b600182019050919050565b7f4e487b7100000000000000000000000000000000000000000000000000000000600052601160045260246000fd5b7f4e487b7100000000000000000000000000000000000000000000000000000000600052602260045260246000fd5b7f4e487b7100000000000000000000000000000000000000000000000000000000600052604160045260246000fd5b6000601f19601f8301169050919050565b7f596f7520617265206e6f74207265676973746572656420646f63746f722e0000600082015250565b7f446f63746f7220697320616c7265616479207265676973746572656400000000600082015250565b7f496e76616c69642070617469656e74207265636f726420494400000000000000600082015250565b7f616d6f756e7420657863656564206f76657220746865207472616e736163746960008201527f6f6e2076616c7565000000000000000000000000000000000000000000000000602082015250565b7f596f7520617265206e6f742061646d696e2e0000000000000000000000000000600082015250565b7f596f7520617265206e6f74207669657765722e00000000000000000000000000600082015250565b7f596f7520617265206e6f7420756e7265676973746572656420646f63746f722e600082015250565b7f50617469656e7420697320616c72656164792072656769737465726564000000600082015250565b614522816141c5565b811461452d57600080fd5b50565b614539816141d7565b811461454457600080fd5b50565b61455081614215565b811461455b57600080fd5b5056fea2646970667358221220646ee1535efc6ec87404ea88184106ed7a9ed812cf372fa73bc6516717527b2064736f6c63430008040033",
  "immutableReferences": {},
  "source": "// SPDX-License-Identifier: UNLICENSED\r\n\r\n/**\r\n *@dev You can find useful smart contract\r\n *@author Manikanta\r\n */\r\n\r\npragma solidity ^0.8.4;\r\n\r\ncontract HealthCare {\r\n    struct UserRole {\r\n        bool isAdmin;\r\n        bool isRegisteredDoctor;\r\n        bool isUnregisteredDoctor;\r\n        bool isPatient;\r\n        bool isGuest;\r\n    }\r\n\r\n    struct PatientInfo {\r\n        string name;\r\n        string nationalId;\r\n        string gender;\r\n        address id;\r\n        bool registered;\r\n    }\r\n\r\n    struct DoctorInfo {\r\n        string name;\r\n        string nationalId;\r\n        string gender;\r\n        string specialty;\r\n        uint yearsOfExperience;\r\n        address id;\r\n        bool registered;\r\n    }\r\n\r\n    struct PatientRecord {\r\n        uint256 id;\r\n        string title;\r\n        string description;\r\n        address doctor;\r\n        address patient;\r\n        uint256 date;\r\n        address medicalCenter;\r\n        string[] tags;\r\n        string attachment;\r\n    }\r\n\r\n    struct DoctorRecord {\r\n        string name;\r\n        string nationalId;\r\n        string gender;\r\n        string specialty;\r\n        uint yearsOfExperience;\r\n        // uint256 date;\r\n    }\r\n    event PatientRecordPublished(uint256 id, address patient);\r\n    // event DoctorRecordPublished(uint256 id);\r\n\r\n    event PatientRegistered(address patient);\r\n    event DoctorRegistered(address doctor);\r\n\r\n    mapping(address => UserRole) private userRoles;\r\n\r\n    mapping(address => uint256) private recordsForPatients;\r\n    mapping(address => uint256) private recordsForDoctors;\r\n    /*\r\n     *@notice it maps the patient address to a nested mapping of unit => PatientRecord\r\n     */\r\n    mapping(address => mapping(uint256 => PatientRecord))\r\n        private patientRecords;\r\n    mapping(address => DoctorRecord) private doctorRecords;\r\n\r\n    address[] private registeredPatients;\r\n    address[] private registeredDoctors;\r\n\r\n    mapping(address => PatientInfo) private patientsInfo;\r\n    mapping(address => DoctorInfo) private doctorsInfo;\r\n\r\n    /*\r\n     *@dev only the creator, maybe admin, has access rights\r\n     */\r\n    constructor() {\r\n        userRoles[msg.sender] = UserRole(true, true,true, false, false);\r\n    }\r\n\r\n    /**\r\n     * --------  modifiers  --------\r\n     */\r\n\r\n    modifier onlyRegisteredDoctors() {\r\n        require(\r\n            userRoles[msg.sender].isRegisteredDoctor,\r\n            'You are not registered doctor.'\r\n        );\r\n        _;\r\n    }\r\n    modifier onlyUnregisteredDoctors() {\r\n        require(\r\n            userRoles[msg.sender].isUnregisteredDoctor,\r\n            'You are not unregistered doctor.'\r\n        );\r\n        _;\r\n    }\r\n\r\n    modifier onlyAdmins() {\r\n        require(\r\n            userRoles[msg.sender].isAdmin,\r\n            'You are not admin.'\r\n        );\r\n        _;\r\n    }\r\n\r\n    modifier onlyViewer(address _patient) {\r\n        bool isAdmin = userRoles[msg.sender].isAdmin;\r\n        bool isRegisteredDoctor = userRoles[msg.sender].isRegisteredDoctor;\r\n        bool isUnregisteredDoctor = userRoles[msg.sender].isUnregisteredDoctor;\r\n        bool isPatient = (msg.sender == _patient);\r\n        bool registered = isRegisteredAsPatient();\r\n        require(\r\n            isAdmin || isRegisteredDoctor || isUnregisteredDoctor || (isPatient && registered),\r\n            'You are not viewer.'\r\n        );\r\n        _;\r\n    }\r\n\r\n    modifier payETH(uint256 amount) {\r\n        require(\r\n            msg.value >= amount,\r\n            'amount exceed over the transaction value'\r\n        );\r\n        _;\r\n    }\r\n\r\n    /** \r\n    * ---------  Check the availablility to Write and Access  -----------\r\n    */\r\n\r\n    function canWrite() public view returns (bool) {\r\n        return userRoles[msg.sender].isUnregisteredDoctor || userRoles[msg.sender].isRegisteredDoctor;\r\n    }\r\n\r\n    function canGiveAccess() public view returns (bool) {\r\n        return userRoles[msg.sender].isAdmin;\r\n    }\r\n\r\n    /**\r\n    * ----------  Add and Get Records  ----------\r\n    */\r\n\r\n    function addPatientRecord(\r\n        address _patient,\r\n        address _doctor,\r\n        string memory _title,\r\n        string memory _description,\r\n        address _medicalCenter,\r\n        string[] memory _tags,\r\n        string memory _attachment\r\n    ) public onlyRegisteredDoctors {\r\n        patientRecords[_patient][recordsForPatients[_patient]] = PatientRecord(\r\n            recordsForPatients[_patient],\r\n            _title,\r\n            _description,\r\n            _doctor,\r\n            _patient,\r\n            block.timestamp,\r\n            _medicalCenter,\r\n            _tags,\r\n            _attachment\r\n        );\r\n        emit PatientRecordPublished(recordsForPatients[_patient]++, _patient);\r\n    }\r\n\r\n    function getPatientRecord(address _patient, uint256 _recordId)\r\n        public\r\n        view\r\n        onlyViewer(_patient)\r\n        returns (PatientRecord memory)\r\n    {\r\n        require(\r\n            recordsForPatients[_patient] > _recordId,\r\n            'Invalid patient record ID'\r\n        );\r\n        return patientRecords[_patient][_recordId];\r\n    }\r\n\r\n    function getPatientRecords(address _patient)\r\n        public\r\n        view\r\n        onlyViewer(_patient)\r\n        returns (PatientRecord[] memory)\r\n    {\r\n        uint256 recordsCountForUser = recordsForPatients[_patient];\r\n        PatientRecord[] memory result = new PatientRecord[](\r\n            recordsCountForUser\r\n        );\r\n        for (uint256 i = 0; i < recordsCountForUser; i++) {\r\n            result[i] = patientRecords[_patient][i];\r\n        }\r\n        return result;\r\n    }\r\n\r\n\r\n\r\n    function getPatientsInfo()\r\n        public\r\n        view\r\n        returns (PatientInfo[] memory)\r\n    {\r\n        uint256 registeredPatientsCount = registeredPatients.length;\r\n        PatientInfo[] memory result = new PatientInfo[](\r\n            registeredPatientsCount\r\n        );\r\n        for (uint256 i = 0; i < registeredPatientsCount; i++) {\r\n            address currentPatient = registeredPatients[i];\r\n            result[i] = patientsInfo[currentPatient];\r\n        }\r\n        return result;\r\n    }\r\n\r\n    function getDoctorsInfo()\r\n        public\r\n        view\r\n        returns (DoctorInfo[] memory)\r\n    {\r\n        uint256 registeredDoctorsCount = registeredDoctors.length;\r\n        DoctorInfo[] memory result = new DoctorInfo[](\r\n            registeredDoctorsCount\r\n        );\r\n        for (uint256 i = 0; i < registeredDoctorsCount; i++) {\r\n            address currentDoctor = registeredDoctors[i];\r\n            result[i] = doctorsInfo[currentDoctor];\r\n        }\r\n        return result;\r\n    }\r\n\r\n    /** \r\n    * ---------  Register as Patient  -----------\r\n    */\r\n\r\n    function isRegisteredAsPatient() public view returns (bool) {\r\n        return patientsInfo[msg.sender].registered;\r\n    }\r\n\r\n    function registerAsPatient(\r\n        string memory _name,\r\n        string memory _nationalId,\r\n        string memory _gender\r\n    ) public {\r\n        require(!isRegisteredAsPatient(), 'Patient is already registered');\r\n        patientsInfo[msg.sender] = PatientInfo(\r\n            _name,\r\n            _nationalId,\r\n            _gender,\r\n            msg.sender,\r\n            true\r\n        );\r\n        registeredPatients.push(msg.sender);\r\n        emit PatientRegistered(msg.sender);\r\n    }\r\n    /** \r\n    * ---------  Register as Doctor  -----------\r\n    */\r\n\r\n    function isRegisteredAsDoctor() public view returns (bool) {\r\n        return doctorsInfo[msg.sender].registered;\r\n    }\r\n\r\n    // function registerAsDoctor(\r\n    //     string memory _name,\r\n    //     string memory _nationalId,\r\n    //     string memory _gender,\r\n    //     string memory _specialty,\r\n    //     uint256 _yearsOfExperience\r\n    // ) public onlyUnregisteredDoctors {\r\n    //     require(!isRegisteredAsDoctor(), 'Doctor is already registered');\r\n    //     doctorsInfo[msg.sender] = DoctorInfo(\r\n    //         _name,\r\n    //         _nationalId,\r\n    //         _gender,\r\n    //         _specialty,\r\n    //         _yearsOfExperience,\r\n    //         msg.sender,\r\n    //         true\r\n    //     );\r\n    //     registeredDoctors.push(msg.sender);\r\n    //     userRoles[msg.sender].isRegisteredDoctor;\r\n    //     emit DoctorRegistered(msg.sender);\r\n    // }\r\n    function registerAsDoctor(\r\n        address _doctor,\r\n        string memory _name,\r\n        string memory _nationalId,\r\n        string memory _gender,\r\n        string memory _specialty,\r\n        uint256 _yearsOfExperience\r\n    ) public onlyUnregisteredDoctors {\r\n        require(!isRegisteredAsDoctor(), 'Doctor is already registered');\r\n        doctorsInfo[msg.sender] = DoctorInfo(\r\n            _name,\r\n            _nationalId,\r\n            _gender,\r\n            _specialty,\r\n            _yearsOfExperience,\r\n            msg.sender,\r\n            true\r\n        );\r\n        doctorRecords[_doctor] = DoctorRecord(\r\n            _name,\r\n            _nationalId,\r\n            _gender,\r\n            _specialty,\r\n            _yearsOfExperience\r\n            // block.timestamp\r\n        );\r\n        registeredDoctors.push(msg.sender);\r\n        userRoles[_doctor].isRegisteredDoctor = true;\r\n        // emit DoctorRecordPublished(doctorRecords[_doctor]);\r\n    }\r\n\r\n    function getDoctorRecord(address _doctor)\r\n        public\r\n        view\r\n        returns (DoctorRecord memory)\r\n    {\r\n        // require(\r\n        //     recordsForDoctors[_doctor] > _recordId,\r\n        //     'Invalid doctor record ID'\r\n        // );\r\n        return doctorRecords[_doctor];\r\n    }\r\n\r\n    function getDoctorRecords(address _doctor)\r\n        public\r\n        view\r\n        returns (DoctorRecord[] memory)\r\n    {\r\n        uint256 recordsCountForUser = recordsForDoctors[_doctor];\r\n        DoctorRecord[] memory result = new DoctorRecord[](\r\n            recordsCountForUser\r\n        );\r\n        for (uint256 i = 0; i < recordsCountForUser; i++) {\r\n            result[i] = doctorRecords[_doctor];\r\n        }\r\n        return result;\r\n    }\r\n\r\n\r\n    /**\r\n     * ----------  grant Access to the others  --------------\r\n     */\r\n    function grantAdminAccess(address payable _user)\r\n        public\r\n        payable\r\n        onlyAdmins\r\n        payETH(0.1 ether)\r\n    {\r\n        userRoles[_user].isAdmin = true;\r\n        userRoles[_user].isRegisteredDoctor = true;\r\n        _user.transfer(0.1 ether);\r\n    }\r\n\r\n    function grantWriteAccess(address payable _user)\r\n        public\r\n        payable\r\n        onlyAdmins\r\n        payETH(0.03 ether)\r\n    {\r\n        userRoles[_user].isUnregisteredDoctor = true;\r\n        _user.transfer(0.03 ether);\r\n    }\r\n}\r\n",
  "sourcePath": "E:\\work\\HEALTHCARE\\HealthCareSystem\\contracts\\HealthCare.sol",
  "compiler": {
    "name": "solc",
    "version": "0.8.4+commit.c7e474f2.Emscripten.clang"
  },
  "schemaVersion": "3.4.3",
  "updatedAt": "2022-01-23T20:14:25.130Z",
  "networkType": "ethereum",
  "devdoc": {
    "kind": "dev",
    "methods": {},
    "version": 1
  },
  "userdoc": {
    "kind": "user",
    "methods": {
      "addPatientRecord(address,address,string,string,address,string[],string)": {
        "notice": "----------  Add and Get Records  ----------"
      },
      "canWrite()": {
        "notice": "---------  Check the availablility to Write and Access  -----------"
      },
      "grantAdminAccess(address)": {
        "notice": "----------  grant Access to the others  --------------"
      },
      "isRegisteredAsDoctor()": {
        "notice": "---------  Register as Doctor  -----------"
      },
      "isRegisteredAsPatient()": {
        "notice": "---------  Register as Patient  -----------"
      }
    },
    "version": 1
  }
}